:020000040800F2
:10000000A00400209D010008A5010008A701000828
:10001000A9010008AB010008AD01000800000000C4
:10002000000000000000000000000000AF01000818
:10003000B101000800000000B3010008B50100088C
:10004000B7010008B7010008B7010008C51B000888
:10005000B7010008B7010008B7010008B7010008A0
:10006000B7010008B7010008B7010008B701000890
:10007000B7010008B7010008B7010008B701000880
:10008000B7010008B7010008B7010008B701000870
:10009000B7010008B7010008B7010008B701000860
:1000A000B7010008B7010008B7010008B701000850
:1000B000B7010008791E0008B7010008B701000861
:1000C000B7010008B7010008B7010008B701000830
:1000D000B7010008B7010008B7010008B701000820
:1000E000B701000819170008B7010008B701000898
:1000F000B7010008B7010008B7010008B701000800
:10010000B7010008B7010008B7010008B7010008EF
:10011000B7010008B7010008B7010008B7010008DF
:10012000B7010008B7010008B7010008B7010008CF
:10013000B7010008B7010008B7010008B7010008BF
:10014000B7010008B7010008B7010008B7010008AF
:10015000B7010008B7010008B7010008B70100089F
:10016000B7010008B7010008B7010008B70100088F
:10017000B7010008B7010008B7010008B70100087F
:10018000B7010008B7010008DFF80CD000F062FAF0
:1001900000480047F9240008A004002006488047D2
:1001A00006480047FEE7FEE7FEE7FEE7FEE7FEE75C
:1001B000FEE7FEE7FEE7FEE71D1E000889010008D6
:1001C000D2B201E000F8012B491EFBD27047002299
:1001D000F6E710B513460A4604461946FFF7F0FF46
:1001E000204610BDF0B480EA0102D40F4200B2EB09
:1001F000410F02D20246084611464A0042D0C30DC2
:10020000DDB2C1F3C752AD1A202D35DAC1F31601A4
:1002100041F4000204B15242C5F1200602FA06F18F
:100220002A411044B3EBD05F23D0C4B1012DA0EB21
:10023000C35009DCF0BC4FF0004202EAC352DBB20B
:1002400000F5000000F02AB9400000F1807000EBDA
:10025000C350A0F1807040EAD170490009E049081C
:1002600041EAC071A0EBC35000F50000400800EB6C
:10027000C350F0BC00F009B96142012202EB410118
:10028000001BF6E7F0BC704781F00041AAE780F060
:100290000040A7E780EA010210B502F000434000E9
:1002A00022D04A001FD0010E01EB1261C0F35600AC
:1002B000C2F3560240F4000042F40002A0FB022008
:1002C00000047F39140400D0401C50EA124001D4CD
:1002D0004000491EC2B20C0604EBD010401C40087E
:1002E000802A02D003E0002010BD20F00100002988
:1002F00000DA0020184310BD30B480EA010202F099
:10030000004530F0004221F0004013D090B1C30D01
:10031000D40DC2F31601C0F31600E41A41F4000133
:1003200040F400027D34914201D3641C00E0490096
:10033000002C02DA30BC002070474FF4000000238C
:10034000914201D3891A034340084FEA4101F7D192
:1003500051B1914202D14FF0004105E002D24FF07D
:10036000010101E06FF0010103EBC450284430BCEF
:1003700000F08BB8C10F80EAE0700844CA079623EA
:10038000002100F08BB896230022114600F086B8B9
:1003900020F00040C10DC0F3160040F400007F299A
:1003A00001DA00207047962903DCC1F19601C840AC
:1003B000704796398840704700F0004230F00040A6
:1003C0000AD0C10D01F56071C0F3160042EA015177
:1003D000C20840071143704700200146704701F0F2
:1003E000004330B421F0004150EA010206D00A0D6A
:1003F000A2F56072C1F31301002A02DC30BC0020B8
:100400007047440F44EAC104C100E01830BC00EB5F
:10041000C25000F03AB80000002801DBC0F10040F3
:10042000002901DBC1F1004181427047002801DB56
:10043000C0F10040002901DBC1F100418842704752
:1004400030B50B46014600202022012409E021FAA4
:1004500002F59D4205D303FA02F5491B04FA02F5A1
:100460002844151EA2F10102F1DC30BD202A04DB74
:10047000203A00FA02F1002070479140C2F12003B7
:1004800020FA03F31943904070470029A8BF704732
:10049000401C490008BF20F00100704710B4B0FABA
:1004A00080FC00FA0CF050EA010404BF10BC704755
:1004B00049B1CCF1200421FA04F411FA0CF118BF6F
:1004C000012121430843A3EB0C01CB1D4FEA00613E
:1004D0004FEA102042BF002010BC704700EBC35011
:1004E00010440029A4BF10BC7047401C490008BF3D
:1004F00020F0010010BC704710B5141E73F1000409
:1005000008DA401C41F1000192185B411A4301D105
:1005100020F0010010BD2DE9F04D92469B4611B12F
:10052000B1FA81F202E0B0FA80F220329046FFF791
:100530009DFF04460F4640EA0A0041EA0B0153467C
:100540005A46084313D0114653EA010019D0C8F1A6
:100550004002504600F090F805460E465046594677
:100560004246FFF783FF084305D0012004E0204600
:100570003946BDE8F08D0020054346EAE0762C437D
:1005800037430A986305E40AA0EB08000022FD0A3D
:1005900044EA47540A3002D500200146E9E7010544
:1005A00010196941DDE9084500196941BDE8F04DC0
:1005B000A2E72DE9F04D00231A461B1A8A4103DBFE
:1005C00000200146BDE8F08DC1F30A52C1F31301CA
:1005D00041F480154FF0000BD10702D100186D4196
:1005E000521E0027044640F2FF11384601EB620A12
:1005F0003E468046024600204FF4801100F03CF851
:10060000C2197141BB1846EB0100B4EB030C75EB4A
:10061000000C04D3E41A65EB000517460E462419B6
:1006200008F101006D4180463428E3DDF91946EBFD
:100630000600091BA84103D24FF0FF32134601E028
:10064000002213461BEB070046EB0A51BDE8F04DB4
:10065000FFF752BF064C074D06E0E06840F001038B
:1006600094E8070098471034AC42F6D3FFF790FDAA
:10067000F435000814360008202A04DB203A21FA59
:1006800002F00021704721FA02F3D040C2F12002AB
:1006900091400843194670474FF0E021096921F065
:1006A00004014FF0E0221161C21700EB5272C2F355
:1006B000C702074B1A701946097801EB4102C2EBD9
:1006C000C1114FF6FF7202EAC101024A1180704760
:1006D00006000020080000202DE9F04F85B00746F5
:1006E0008946924655464E46002194480068FFF7D9
:1006F00093FE02D19148076019E19048016838469D
:1007000000F03EF90028F7D08D4800688D49086058
:1007100070783178C1EB011100EB8100C0EB001063
:10072000B17801EB80004FF47A714843F17801EB26
:10073000810100EB81088448C0F80080006881498D
:100740000968401AFA287DDB804801688048006803
:10075000FFF79AFD02907F4801680298FFF766FE56
:1007600070D879480068764908607B480078401C5A
:100770007949087079480068401C784908607848D1
:100780000068A8EB0000B0F5FA6F7DD3084600685A
:10079000012805D173492868FFF7AEFD04463AE009
:1007A0006E480068022806D14FF081412868FFF7A3
:1007B000A3FD04462FE069480068032805D16A4973
:1007C0002868FFF799FD044625E06448006804287E
:1007D00006D14FF080412868FFF78EFD04461AE0ED
:1007E0005E480068052805D160492868FFF784FD48
:1007F000044610E059480068072801D12C680AE037
:1008000056480068082805D358492868FFF742FD74
:10081000044600E0002451480068FFF7B4FD21467B
:100820000190FFF737FD4FF080410290FFF764FD24
:1008300083464A480068FFF7A6FD21460290FFF76D
:1008400029FD00E050E004904FF080416868FFF718
:1008500053FD594601904648FFF71CFD0090019951
:10086000FFF718FD43490290FFF746FD0390424908
:1008700008680399FFF7B6FC3F4908604868049987
:10088000FFF7B0FC3C4900E006E048603448C0F89F
:1008900000800020314908602F48007805280CDAD4
:1008A0002948006827490968401A40F6B83188424B
:1008B00003DB00202849087016E027480078052847
:1008C00012DB214800681F490968401A40F6B83118
:1008D000884209DC284880681F490978084426496D
:1008E000886000201C49087017480068154909688D
:1008F000401AFA281BDB1548016815480068FFF705
:10090000C3FC02901D4801680298FFF78FFD0ED8C6
:100910000D4800680A4908600C4801680C480068E6
:10092000FFF7B2FC029000F0C7FE0A4908600348D6
:100930000760114805B0BDE8F08F000038000020C6
:10094000280000202C00002030000020240000207F
:100950002000002040000020440000204C00002027
:10096000480000200000A040000040409A99993FB4
:10097000000090400000E144940000203C00002072
:1009800070B505460C461D4800781D490870214683
:100990002846FFF74BFD08D8012018490870194870
:1009A0000068401C1749086008E0164800681649AE
:1009B0000860002013490860104908700F4800784B
:1009C00078B90F48007860B10F480068022804DA4F
:1009D0000E492046FFF72AFD03D80D480460012088
:1009E00070BD0748007830B90448007818B109484C
:1009F00004600020F4E70020F2E70000100000206F
:100A00001C00002014000020180000200000A0415D
:100A100020000020240000201548006840F002005B
:100A2000134908601348006820F0404011490860ED
:100A30000846006840F080400860081D006820F407
:100A40000040091D0860081D006820F04040091D95
:100A500008600846006840F000400860054814300F
:100A6000006820F40040034914310860704700001A
:100A700030380240000402401B48006840F0020089
:100A8000194908601948006820F440301749086087
:100A90000846006840F480300860081D006820F4B3
:100AA0008070091D0860081D006820F44030091D91
:100AB00008600846006840F4003008600A48006892
:100AC00040F00200084908600848006820F440200F
:100AD0000649086005480C30006820F440200349AE
:100AE0000C310860704700003038024000040240BA
:100AF0002248006840F00200204908602048006851
:100B000020F440301E4908600846006840F48030F8
:100B10000860081D006820F48070091D0860081D29
:100B2000006820F44030091D08600846006840F461
:100B3000003008601148006840F002000F4908606A
:100B40000F48006820F440200D49086008460068FE
:100B500040F480200860081D006820F40070091D22
:100B60000860081D006820F44020091D0860084640
:100B7000006840F4002008607047000030380240F0
:100B80000004024010B5FFF7B3FF0D48006840F4C1
:100B900000700B4908600846006840F480700860E7
:100BA0000846006820F400700860062001F05EFC32
:100BB0000348006820F480700149086010BD0000FF
:100BC0001404024010B5FFF793FF0F48006840F48B
:100BD00080700D4908600846006820F400700860C5
:100BE000042001F043FC0848006840F40070064906
:100BF0000860042001F03AFC0348006840F480706B
:100C00000149086010BD00001404024010B54FF403
:100C100080701949088018481A38006820F440206C
:100C200015491A3908600846006840F480200860B9
:100C300048151149891E0880022001F017FC4FF465
:100C400000700D490880032001F010FC4FF4807003
:100C50000949891E0880042001F008FC4FF48070C7
:100C600005490880022001F001FC4FF400700249A0
:100C7000891E088010BD00001A04024010B54FF410
:100C800080701949088018481A38006820F44020FC
:100C900015491A3908600846006840F48020086049
:100CA00048151149891E0880022001F0DFFB4FF42E
:100CB00000700D49891E0880032001F0D7FB4FF416
:100CC00080700949891E0880042001F0CFFB4FF491
:100CD000807005490880022001F0C8FB4FF40070C5
:100CE0000149891E088010BD1A04024070B50646ED
:100CF00000252148006820F440201F49086008466C
:100D00000068086000242CE04FF480701A491A3102
:100D10000880052001F0AAFB4FF4807016491831B5
:100D20000880042001F0A2FB13481030006800F492
:100D3000007008B1012000E00020012805D1C4F1B5
:100D4000070188402843C5B204E0C4F1070101202F
:100D5000884085434FF4807007491A310880601C31
:100D6000C4B2082CD0DB16B9FFF750FF01E0FFF743
:100D700085FF284670BD00000004024070B505469E
:100D80001E48006820F440201C490860084600689E
:100D900040F480200860002427E04FF48070174959
:100DA0001A310880C4F1070101208840284028B189
:100DB0004FF4007011491831088004E04FF40070BE
:100DC0000E491A310880032001F050FB4FF4807067
:100DD0000A4918310880032001F048FB4FF4807065
:100DE00006491A310880601CC4B2082CD5DB4FF4C8
:100DF000007002491831088070BD000000040240F4
:100E000010B50C48006820F440200A4908600846E4
:100E1000006840F4802008604815064918310880B1
:100E2000401008804000891C0880062001F01EFB4D
:100E300010BD00000004024010B51148006820F405
:100E400040200F4908600846006840F48020086090
:100E500088150B491A31088040000880042001F0F1
:100E600005FB4FF48070064918310880042001F01A
:100E7000FDFA4FF4007002491831088010BD0000DF
:100E80000004024010B500241748006820F44020F8
:100E9000154908600846006808604815124918316D
:100EA0000880012001F0E2FA4FF480700E491831F9
:100EB0000880012001F0DAFA07E0601CC4B2FA2CC5
:100EC00003DDFFF7B9FF012010BD074810300068AF
:100ED00000F4007000B1F0E74FF4807002491A315D
:100EE00008800020F0E70000000402401548006878
:100EF00040F00100134908601348006820F44040A6
:100F0000114908600846006840F4804008600846BF
:100F1000406820F0800048600846806820F4404027
:100F200088600846806840F4004088600846C068D1
:100F300020F44040C8600846C06840F48040C86063
:100F400070470000303802400000024010B5002415
:100F5000FFF792FD0F48006820F480700D4908608B
:100F60000846006840F480700860012001F07EFAB5
:100F70000848001F006800F4007000B1012406203A
:100F800001F074FA0348006820F480700149086099
:100F9000204610BD1404024070B50546FFF7A8FDB9
:100FA000002423E01648006820F48070144908608B
:100FB00080202041284028B10846006840F4007095
:100FC000086005E00E48006820F400700C490860D5
:100FD000032001F04BFA0A48006840F48070084989
:100FE0000860032001F042FA601CC4B2082CD9DB6F
:100FF0000348006820F480700149086070BD00005B
:10100000140402402DE9FC4104460D4616466B4689
:1010100006223B21682000F072F80746BFB99DF810
:1010200001009DF8001040EA012000B220809DF8E8
:1010300003009DF8021040EA012000B228809DF8CC
:1010400005009DF8041040EA012000B230803846C7
:10105000BDE8FC8110B580216B2000F0CCF8642045
:1010600001F0E8F900216B2000F0C5F8002000F045
:1010700080F8322000F0A2F80021382000F0BBF800
:1010800000216A2000F0B7F80021232000F0B3F817
:101090008021372000F0AFF8752000F013F80446E7
:1010A000682C0BD101216B2000F0A5F807216C20E2
:1010B00000F0A1F8322000F081F801E0012010BD1D
:1010C0000020FCE770B50446FFF79AFED020FFF73A
:1010D00055FEFFF7D7FE2046FFF750FEFFF7D2FE82
:1010E000FFF78EFED120FFF749FEFFF7CBFE012070
:1010F000FFF7FCFD0546FFF79FFE284670BD2DE972
:10110000F04106460F4614461D46FFF779FE0021C2
:1011100041EA4601C8B2FFF731FEFFF7B3FE20B146
:10112000FFF78AFE0120BDE8F0813846FFF726FE72
:10113000FFF7A8FEFFF764FE012101EB4601C8B2EC
:10114000FFF71CFEFFF79EFE0DE0012C04D10120ED
:10115000FFF7CCFD287003E00020FFF7C7FD2870E3
:10116000601EC4B26D1C002CEFD1FFF765FE00209D
:10117000D9E710B50446E006010E1C2000F03BF84C
:1011800010BD70B504460025BC2C01DB012510E024
:10119000622C01DB02250CE02A2C01DB032508E090
:1011A000142C01DB042504E00A2C01DB052500E0FA
:1011B000062529461A2000F01EF870BD70B50446B9
:1011C000B4F57A7F01DD4FF47A74042C00DA04243C
:1011D0004FF47A7090FBF4F0401EC5B229461920F6
:1011E00000F009F80546264604EBD671C1F34F001E
:1011F000FFF7C7FF70BD70B505460C46FFF700FE50
:10120000D020FFF7BBFDFFF73DFE18B1FFF714FE3E
:10121000012070BD2846FFF7B1FDFFF733FE2046E1
:10122000FFF7ACFDFFF72EFE18B1FFF705FE01201A
:10123000EFE7FFF701FE0020EBE70000F0B5164DE9
:101240002D684FF6FF063540134E356035462D6844
:10125000124E46EA002635430F4E3560C0F10706B0
:101260000125B5406D1E0D40C61EB540012707FA89
:1012700006F6761E16403543ECB225072E0E084DB5
:10128000EE5403F01F060125B5405E09B60006F1D5
:10129000E026C6F80051F0BD0CED00E00000FA05B4
:1012A00000E400E010B500F0A5F800F09DF800F0B3
:1012B00001F90021AE2000F0E7F90021022000F042
:1012C000E3F90021102000F0DFF90021402000F0B8
:1012D000DBF90021812000F0D7F90021CF2000F0B8
:1012E000D3F90021A12000F0CFF90021C82000F09F
:1012F000CBF90021A62000F0C7F90021A82000F0BA
:10130000C3F900213F2000F0BFF90021D32000F0F5
:10131000BBF90021084600F0B7F90021D52000F004
:10132000B3F90021802000F0AFF90021D92000F0AE
:10133000ABF90021F12000F0A7F90021DA2000F03C
:10134000A3F90021122000F09FF90021DB2000F01A
:101350009BF90021402000F097F90021202000F0A7
:1013600093F90021022000F08FF900218D2000F078
:101370008BF90021142000F087F90021A42000F04F
:1013800083F90021A62000F07FF90021AF2000F0B2
:101390007BF90021AF2000F077F900F005F800217B
:1013A000084600F09FF810BD70B5002419E004F164
:1013B000B001C8B2002100F067F90021022000F05E
:1013C00063F90021102000F05FF9002505E00121FC
:1013D000002000F059F9681CC5B2802DF7DB601CB5
:1013E000C4B2082CE3DB70BD80200149088070473F
:1013F000180402402C48006840F003002A490860A5
:101400002A48006820F040602849086008460068C3
:1014100040F080600860081D006820F40050091D3D
:101420000860081D006820F04060091D086008463B
:10143000006840F0006008601D48006820F04040EF
:101440001B4908600846006840F080400860084674
:10145000406820F4004048600846806820F0404022
:1014600088600846806840F0004088600F48006847
:1014700020F440400D4908600846006840F4804070
:101480000860081D006820F08000091D0860081D24
:10149000006820F44040091D08600846006840F4D8
:1014A00000400860002070473038024000040240CD
:1014B0000000024010B54FF4005006490880192082
:1014C00000F0B8FF4FF400500249891E0880002048
:1014D00010BD00001A0402408020014908807047B6
:1014E0001A04024070B504460D46A01CC4B205F1B2
:1014F000B001C8B2002100F0C7F8102141EA141071
:10150000002100F0C1F804F00F0141F001000021BA
:1015100000F0BAF870BD2DE9F04104460F461546BB
:101520009846002616E0AA5D43463946204600F05C
:1015300017F8B8F1180F03D104F11000C4B202E09B
:1015400004F10800C4B2782C02DD0024B81CC7B234
:10155000701CC6B2A85D0028E5D1BDE8F08100008E
:101560002DE9F04780460E4691461F46002500248F
:10157000A9F12000C5B2B8F17F0F02DDA046B01C72
:10158000C6B2182F3DD131464046FFF7ABFF0024CD
:101590000AE005EB450104EB0111384A505C0121DA
:1015A00000F072F8601CC4B2102CF2DB701CC1B2E7
:1015B0004046FFF797FF00240BE005EB450104EBE5
:1015C000011110312D4A505C012100F05DF8601CC2
:1015D000C4B2102CF1DBB01CC1B24046FFF782FF51
:1015E00000240BE005EB450104EB01112031234AF7
:1015F000505C012100F048F8601CC4B2102CF1DBF3
:1016000039E0102F24D131464046FFF76BFF00240C
:1016100008E004EB05111A4A505C012100F034F88F
:10162000601CC4B2082CF4DB701CC1B24046FFF74A
:1016300059FF002409E004EB05110831104A505C01
:10164000012100F021F8601CC4B2082CF3DB12E089
:1016500031464046FFF746FF00240AE005EB45010E
:10166000084A02EB4101085D012100F00DF8601C01
:10167000C4B2062CF2DBBDE8F0870000E4300008BD
:10168000CC280008BC2E000870B505460C4624B1D5
:101690004FF400400749088303E04FF40040054938
:1016A0004883FFF719FF284600F052FBFFF79CFE26
:1016B00070BD00000000024070B505461348066882
:1016C00000241348006804280ADA124810490968FF
:1016D00040F821500E480068401C0D49086013E096
:1016E00004210C4800F04EFE0646012408E009489B
:1016F00050F82410601E074A42F82010601CC4B243
:10170000042CF4DB0348C560304670BD4000002067
:101710000C0000207800002010B50A48006800F492
:10172000807040B10748006820F480700549086067
:1017300005A000F047FC0748006840F40030054968
:10174000086010BD0C280040414C41524D20412101
:101750000D0A0000143C0140014600BF081100EBD7
:101760008000420001F00F001044C0B270470146F3
:10177000002204E0501CC2B2A1F10A00C1B20A2941
:10178000F8DA100741EA106070470000F0B504462F
:101790000D4616461F46002300BF00F029FA002818
:1017A000FBD10A480368C3F30540FFF7D5FF20705B
:1017B000C3F30620FFF7D0FF287003F07F00FFF788
:1017C000CBFF3070C3F387503870F0BD0028004065
:1017D00010B541F6FF743B48006840F0805039492D
:1017E00008603948006840F480703749086000207C
:1017F00000F08EF845F25001884260D03148303018
:10180000006840F001002F493031086004E0601E9C
:1018100084B2052000F00EFE34B12A483030006852
:1018200000F002000028F2D00CB9012010BD2548BC
:101830003030006840F4807022493031086008463A
:10184000006840F400400860CA2020490860532026
:10185000086000F03DF808B10220E7E7FF201B49CF
:10186000143908600846006840F4FE000860174814
:101870001C38006820F0400014491C390860081D1D
:10188000006820F08000091D0860FF200F490860F3
:10189000002338223A210E2000F004F9012305220A
:1018A0000921112000F0CCF80A2318220F2104206E
:1018B00000F038F845F25001002000F0BDF900209A
:1018C000B4E7000040380240007000402428004087
:1018D0004FF480310D48006800F0400008B100204E
:1018E00070470A48006840F08000084A106000E035
:1018F000491E29B10548006800F040000028F7D0D3
:1019000009B90120ECE70020EAE700000C280040BC
:1019100001460022024800EB810210687047000077
:10192000502800402DE9F04107460C4615461E465A
:10193000CA2041490860532008603F481C380068AD
:1019400020F480703C491C39086000BF3A481838C0
:10195000006800F001000028F8D00020364908395E
:1019600008600846006840F080400860084600684B
:1019700008603846FFF7FBFE2F490839096841EA3D
:1019800000602D49083908602046FFF7F0FE2A491B
:101990000839096841EA00402749083908602846A3
:1019A000FFF7E5FE24490839096841EA0020224989
:1019B000083908603046FFF7DAFE1F490839096820
:1019C00008431D490839086000201B492031086080
:1019D00019481C38006840F4805017491C390860C9
:1019E0000846006840F480700860FF2012490860D3
:1019F00011481838006820F480700F4918390860C1
:101A00004FF400300D4908600C481438006840F469
:101A100000300A491439086008480C38006840F45E
:101A2000003006490C39086029230222114610466D
:101A3000FFF704FCBDE8F08124280040143C01407D
:101A40002DE9F04106460C4615460027CA201449E8
:101A5000086053200860FFF73BFF10B10120BDE88C
:101A6000F0813046FFF783FE000403F0070140EAEF
:101A700041382046FFF77BFE48EA00282846FFF75A
:101A800076FE48EA00070648203807600448183800
:101A9000006820F080000249183908600020DEE765
:101AA000242800402DE9F04106460C461546002743
:101AB000CA201449086053200860FFF709FF10B1DD
:101AC0000120BDE8F0813046FFF751FE000403F02D
:101AD000010140EA81582046FFF749FE48EA002804
:101AE0002846FFF744FE48EA000706482438076006
:101AF00004481838006820F080000249183908604E
:101B00000020DEE72428004070B504460D46CA20B8
:101B10002A4908605320086028481C38006820F4CF
:101B2000806026491C39086000BF244818380068C6
:101B300000F004000028F8D020481C38006820F08D
:101B400007001E491C3908600846006804F00701B8
:101B500008431A491C390860184810380560081DE8
:101B6000006820F48060091D0860081F006840F4C8
:101B70008040091F08600846006840F480600860E3
:101B8000FF200E4908604FF480000D4908600C48A2
:101B90001438006840F48000094914390860084886
:101BA0000C38006840F4800005490C3908600323B4
:101BB000022211461046FFF741FB70BD2428004069
:101BC000143C01400848006800F4806028B10648D1
:101BD000006820F48060044908600448006840F40C
:101BE00080000249086070470C280040143C014006
:101BF0000F49CA200F4A1060532010600D48183852
:101C0000006820F020000B4A183A106000E0491EDE
:101C100031B108481838006800F020000028F6D0DC
:101C200009B901207047FF20024A10600020F9E73F
:101C3000FFFF0F00242800400022024B03EB80022C
:101C4000116070475028004010B500F001F810BD39
:101C500010B5FEF797FF8020FFF79EF9FFF776F9A2
:101C600000B110BDFE20FFF797F9FFF76FF900B143
:101C7000F7E7FEF7A7FF00BFF3E700002F48006873
:101C800040F480502D4908602C481438006840F01A
:101C900002002A49143908602948006820F47C6051
:101CA000274908600846006840F428600860244816
:101CB0000830006820F47C6021490831086008463B
:101CC000006840F4286008601D48203000681D4905
:101CD00008401B4920310860084600681A4908433B
:101CE0001749203108601948008840F0040017495E
:101CF00008800846008840F4007008800846008884
:101D000040F4807008800846008840F02000088079
:101D10000846008820F4006008800846008820F00B
:101D2000800008800846008820F0030008800846EC
:101D3000008840F0400008807047000044380240AE
:101D400000040240FF0F00FF00505500003001402A
:101D5000014600BF0948008900F002000028F9D0C0
:101D60000648818100BF0548008900F00100002875
:101D7000F9D002488089C0B27047000000300140AD
:101D80002248006840F080502049086020480068E0
:101D900040F440401E4908601C48383800681B4920
:101DA000383908600846006808600846006840F452
:101DB000805008601748091F0860081F006840F03D
:101DC0008070091F086000BF10484038006800F0AC
:101DD00000700028F8D040F202700F4908600B48EC
:101DE0003838006820F00300084938390860084690
:101DF000006840F00200086000BF044838380068FE
:101E000000F00C000828F8D170470000403802406C
:101E10000070004010640107003C024010B51248F9
:101E2000006840F001001049086000200E490831A8
:101E300008600D4800680D4908400B4908600C48CF
:101E4000091D0860081F006820F48020091F086031
:101E5000002005490C310860FFF792FF4FF0006049
:101E60000449086010BD000000380240FFFFF6FE84
:101E70001030002408ED00E00848008800F0010060
:101E800028B10748406980F080000549486103484F
:101E9000008820F0010001490880704710040040CC
:101EA000000002402DE9F04303460C463B48006821
:101EB00040F002003949086039480360001F04807F
:101EC000002037490839086035482038008840F03C
:101ED000010033492039088031482C38008840F00F
:101EE00001002F492C390880052005462D4E316808
:101EF0004FF6FF0631402C4E0E4346EA0521294E8F
:101F0000316000BF022500260146C1F10708B8F183
:101F1000040F02D94FF0040801E0C1F10708C446DC
:101F200001F10408B8F1070F02D24FF0000801E0F8
:101F3000A1F1030847464FF0010808FA0CF8A8F190
:101F4000010808EA050808FA07F84FF0010909FA3C
:101F500007F9A9F1010909EA060948EA090200BFDF
:101F60001D211046002908DA05072F0E0D4D0C35EE
:101F700001F00F06361FAF5503E005072E0E0B4D7F
:101F80006E5400BF1D20012181404509AD0005F1BF
:101F9000E025C5F8001100BFBDE8F08340380240DD
:101FA0002C0400400CED00E00000FA0500E400E025
:101FB00008B50146002000906946014808BD0000B0
:101FC000500000200FB4054B10B503A9044A029835
:101FD00000F032F810BC5DF814FB0000E5240008A6
:101FE000580000200FB4084B10B504A902AA0398AA
:101FF00000F022F8044602A9002000F0BEF92046B5
:1020000010BC5DF814FB00007B23000802E008C848
:10201000121F08C1002AFAD170477047002001E062
:1020200001C1121F002AFBD170470000014908605E
:10203000704700005C0000202DE9FF4F8BB0884600
:102040000546002606E025280BD0DDE90D12904755
:102050006D1C761C28780028F5D10FB03046BDE8FD
:10206000F08F0024A146A2460122AE4900E00443BD
:1020700015F8013F203B02FA03F00842F7D1287817
:102080002A2810D06FF02F022878A0F130010929FA
:1020900015D809EB890102EB410144F0020400EB81
:1020A00001096D1CF0E758F8041B5FEA010903D52C
:1020B00044F40054C9F1000944F002046D1C28786E
:1020C0002E2817D115F8010F44F004042A280ED049
:1020D0006FF02F022878A0F1300109290AD80AEB05
:1020E0008A0102EB410100EB010A6D1CF2E758F88E
:1020F00004AB6D1C28786C280FD006DC4C2817D058
:1021000068280DD06A2814D104E0742810D07A28E9
:102110000FD10DE044F400140AE044F4801401E00F
:1021200044F440146978814202D104F580146D1C96
:102130006D1C2878692865D006DC00288DD06328BE
:1021400027D0642806D15DE06E2808D073282AD0F5
:10215000752877D0DDE90D129047761CE0E0C4F3D6
:102160000250022809D003280DD0D8F80010042806
:102170000DD00E6008F10408D2E0D8F80010F21774
:10218000C1E90062F6E7D8F800100E80F2E70E70A1
:10219000F0E718F8041B8DF8001000208DF80100FE
:1021A000EB46012003E058F804BB4FF0FF30610715
:1021B0004FF0000701D40AE07F1C57450DDA874233
:1021C000FADB1BF807100029F6D106E07F1C8742D6
:1021D000FCDB1BF807100029F8D1DDE90D23A9EB82
:1021E00007008146214600F0B1F83044C61904E0EA
:1021F000DDE90D121BF8010B90477F1EF8D2214636
:10220000484688E058F8040BC4F302514FF00A0B1B
:10221000032900D100B2042900D140B2002802DA1B
:1022200040422D2102E0210505D52B218DF82410F7
:10223000012104E006E0E10710D02021F6E708AF15
:10224000089113E058F8040BC4F302514FF00A0B45
:10225000032900D180B2042900D1C0B20021EEE7E9
:102260005946FEF7EDF8303107F8011D0028F7D187
:10227000ADEB070000F1200B600702D524F4803499
:1022800001E04FF0010ADA4502DDAAEB0B0000E0A5
:102290000020824600EB0B0108980144A9EB0100E5
:1022A0000A90E00306D4DDE90D2321460A9800F0E8
:1022B0004DF806444FF0000908E009A911F809009B
:1022C000DDE90D12904709F10109761C089989454D
:1022D000F3DBE0030CD5DDE90D2321460A9800F07D
:1022E00035F8064404E0DDE90D1230209047761CF5
:1022F000BAF10001AAF1010AF5DC05E0DDE90D12F1
:1023000017F8010B9047761CBBF10001ABF1010BF4
:10231000F4DC0A982146DDE90D2300F005F80644B7
:102320006D1C97E6092801002DE9F04104460025BF
:102330001E461746880404D405E039462020B047DD
:102340006D1C641EF9D52846BDE8F0812DE9F041E9
:10235000044600251E469046C80301D5302700E0FC
:102360002027880404D505E041463846B0476D1C57
:10237000641EF9D52846BDE8F0810A68531C0B603D
:10238000107070472DE9F04105460E4600270024E5
:1023900000BF07E055F824103846FDF723FF074635
:1023A000601CC4B2B442F5DB4FF081413846FDF702
:1023B000A3FF07464FF082413846FEF737F801D8B1
:1023C000164F28E016493846FEF730F807D84FF088
:1023D00082413846FEF720F801D2124F1BE04FF041
:1023E00081413846FEF722F806D80D493846FEF7F7
:1023F00013F801D20C4F0EE00C493846FEF716F8E0
:1024000008D84FF081413846FEF706F802D24FF067
:10241000804700E0064F3846BDE8F0819A99894030
:102420000000E0403333534033331340000040405A
:102430006666A63F70B504464FF4077094FBF0F053
:10244000C6B24FF4077094FBF0F100FB114085B267
:1024500005E04FF4077000F027F8701EC6B2002E9A
:10246000F7D115B1284600F01FF870BD01460D4A9E
:1024700012784A434FF0E0235A6100229A61012208
:102480001A6100BF4FF0E022106900F001021AB19A
:1024900000F48032002AF5D000224FF0E0231A61C8
:1024A0009A6170470600002001460D4A12884A438F
:1024B0004FF0E0235A6100229A6101221A6100BFA5
:1024C0004FF0E022106900F001021AB100F48032EE
:1024D000002AF5D000224FF0E0231A619A6170477C
:1024E0000800002038B504468DF800006946032036
:1024F000ABBE204638BD0000A2B018210DA8FDF7E4
:1025000066FE182107A8FDF762FE6420FEF7C4F8F6
:10251000FFF7B4FBFEF7EAFCFFF796FBFEF7C2FEFF
:10252000FEF798FDFEF778FA41F2873142F20F701C
:10253000FFF7B8FCFFF74CF900210420FFF7E4FA9D
:10254000FEF732FF26E101AA02A903A8FEF75AFD11
:10255000BDF90C2090A117A8FFF744FD102317AA7E
:1025600002210020FEF7D7FFBDF908208CA117A893
:10257000FFF738FD102317AA04210020FEF7CBFF38
:10258000BDF9042088A117A8FFF72CFD102317AA76
:1025900006210020FEF7BFFF13AB14AA15A916A849
:1025A000FFF7F4F88248807882490978884207D09A
:1025B0007F4880787F49087000207D49C87004E01A
:1025C0007B48C078401C7A49C8709DF8580078490B
:1025D00008709DF8540048709DF8500088700846B7
:1025E000807874490978884207D0714880787149A9
:1025F000087000206E49C87004E06D48C078401C27
:102600006B49C8709DF85800694908709DF85400DE
:1026100048709DF850008870BDF90C00FDF7AAFEC7
:1026200005464FF08D41FDF767FE04466249FDF710
:1026300031FE0490BDF90800FDF79CFE05464FF001
:102640008D41FDF759FE04465B49FDF723FE0590D9
:10265000BDF90400FDF78EFE05464FF08D41FDF7F4
:102660004BFE04465449FDF715FE069021A8FFF7DE
:102670009FFC044622464E4904A800F0BFF84F498B
:10268000D0E900238068C1E90023886008464CA196
:10269000826817A8FFF7A6FC102317AA0021084696
:1026A000FEF739FF00210498FDF7C0FE0FD804980B
:1026B000FDF76EFEC4B2224644A117A8FFF792FCB4
:1026C000102317AA02215820FEF725FF11E00498D5
:1026D00080F000452846FDF75BFEC4B222463DA1CE
:1026E00017A8FFF77FFC102317AA02215820FEF736
:1026F00012FF00210598FDF799FE0FD80598FDF708
:1027000047FEC4B2224635A117A8FFF76BFC102381
:1027100017AA04215820FEF7FEFE11E0059880F06C
:1027200000452846FDF734FEC4B222462DA117A865
:10273000FFF758FC102317AA04215820FEF7EBFEE0
:1027400000210698FDF772FE0FD80698FDF720FECF
:10275000C4B2224625A117A8FFF744FC102317AAEC
:1027600006215820FEF7D7FE11E0069880F00045BC
:102770002846FDF70DFEC4B222461EA117A8FFF79A
:1027800031FC102317AA06215820FEF7C4FE14209E
:10279000FFF750FED7E6000063783A25640000009A
:1027A00063793A2564000000637A3A2564000000EA
:1027B00001000020050000200000204160000020F2
:1027C000537465703A25303564200000583A25303E
:1027D00032642000583A2D2530326400593A2530B1
:1027E00032642000593A2D25303264005A3A25309F
:1027F000326420005A3A2D25303264002DE9F04F22
:1028000087B004460E4691462546CA4606961A49A2
:102810002868086068684860A86888600A46916807
:102820009068FDF737FD144A029051685068FDF733
:1028300031FD114A019011681068FDF72BFD0090E1
:102840000199FDF7CFFC83460299FDF7CBFC03907D
:10285000FDF7B2FDCDE9040100F012F80746FDF7DF
:10286000BEFD064908605246044806990068FDF717
:1028700033FF07B0BDE8F08F6C000020340000206B
:102880002DE9F04106460F46FDF793FE041E0D4666
:1028900018BF0120284320F00040C0F17F6000F104
:1028A000E040C00F0ED0301C18BF0120384320F08C
:1028B0000040C0F17F6000F1E040C00F04BF012084
:1028C000FFF7B4FB20462946BDE8F0810000000078
:1028D000000000000000000000000000000000F800
:1028E00000000000000000333000000000100C0663
:1028F000100C0600000000000000000040C07840FE
:10290000C0784000043F04043F040400007088FCC9
:1029100008300000001820FF211E0000F008F00021
:10292000E018000000211C031E211E0000F0088892
:10293000700000001E2123241927211010160E00FC
:10294000000000000000000000000000000000E0A7
:1029500018040200000000071820400000020418BC
:10296000E00000000040201807000000404080F018
:10297000804040000202010F01020200000000F04E
:10298000000000000101011F010101000000000022
:102990000000000080B07000000000000000000097
:1029A0000000000000010101010101010000000020
:1029B00000000000003030000000000000000000B7
:1029C00080601804006018060100000000E0100894
:1029D0000810E000000F102020100F00001010F869
:1029E000000000000020203F2020000000700808A8
:1029F0000888700000302824222130000030088828
:102A0000884830000018202020110E000000C0204F
:102A100010F8000000070424243F240000F8088870
:102A2000880808000019212020110E0000E01088FD
:102A300088180000000F112020110E00003808082F
:102A4000C83808000000003F00000000007088083F
:102A500008887000001C222121221C0000E01008C0
:102A60000810E0000000312222110F00000000C019
:102A7000C0000000000000303000000000000080B6
:102A800000000000000080600000000000008040A6
:102A900020100800000102040810200040404040BF
:102AA0004040400004040404040404000008102012
:102AB0004080000000201008040201000070480857
:102AC0000808F0000000003036010000C030C828BF
:102AD000E810E0000718272423140B000000C0387A
:102AE000E0000000203C23020227382008F88888F4
:102AF00088700000203F202020110E00C030080800
:102B000008083800071820202010080008F80808D6
:102B10000810E000203F202020100F0008F88888CF
:102B2000E8081000203F20202320180008F888889B
:102B3000E8081000203F200003000000C030080813
:102B40000838000007182020221E020008F808009C
:102B50000008F808203F210101213F20000808F863
:102B6000080800000020203F202000000000080886
:102B7000F8080800C08080807F00000008F888C046
:102B800028180800203F20012638200008F80800F7
:102B900000000000203F20202020300008F8F8002E
:102BA000F8F80800203F003F003F200008F830C040
:102BB0000008F808203F200007183F00E010080830
:102BC0000810E0000F10202020100F0008F808085F
:102BD0000808F000203F210101010000E010080872
:102BE0000810E0000F18242438504F0008F8888897
:102BF00088887000203F2000030C30200070880877
:102C0000080838000038202121221C00180808F884
:102C1000080818000000203F2000000008F8080005
:102C20000008F808001F202020201F0008788800D6
:102C300000C83808000007380E010000F80800F846
:102C40000008F800033C0700073C030008186880F0
:102C50008068180820302C03032C30200838C80066
:102C6000C83808000000203F2000000010080808B5
:102C7000C83808002038262120201800000000FE57
:102C8000020202000000007F40404000000C30C003
:102C900000000000000000010638C000000202022F
:102CA000FE000000004040407F00000000000402E1
:102CB000020204000000000000000000000000000C
:102CC00000000000808080808080808000020204FC
:102CD00000000000000000000000000000008080F4
:102CE000808000000019242222223F2008F8008062
:102CF00080000000003F112020110E000000008025
:102D000080800000000E11202020110000000080B3
:102D10008088F800000E112020103F2000008080E5
:102D200080800000001F222222221300008080F0F9
:102D3000888888180020203F202000000000808024
:102D400080808000006B94949493600008F8008069
:102D500080800000203F210000203F2000809898C4
:102D6000000000000020203F202000000000008024
:102D70009898000000C08080807F000008F8000064
:102D800080808000203F24022D302000000808F8B9
:102D9000000000000020203F202000008080808074
:102DA00080808000203F20003F20003F8080008006
:102DB00080800000203F210000203F200000808014
:102DC00080800000001F202020201F0080800080C5
:102DD0008000000080FFA12020110E000000008074
:102DE00080808000000E112020A0FF808080800065
:102DF0008080800020203F21200001000000808092
:102E0000808080000033242424241900008080E086
:102E1000808000000000001F202000008080000053
:102E200000808000001F202020103F208080800034
:102E30000080808000010E30080601008080008044
:102E4000008080800F300C030C300F000080800069
:102E5000808080000020312E0E3120008080800094
:102E60000080808080818E70180601000080808044
:102E7000808080000021302C2221300000000000E2
:102E8000807C020200000000003F40400000000083
:102E9000FF00000000000000FF0000000002027CB4
:102EA000800000000040403F0000000000060101DB
:102EB0000202040400000000000000000000000006
:102EC00000000000002F00000000070007000014B1
:102ED0007F147F1400242A7F2A12006264081323BF
:102EE00000364955225000000503000000001C2256
:102EF0004100000041221C000014083E0814000894
:102F0000083E0808000000A0600000080808080843
:102F1000000060600000002010080402003E5149DB
:102F2000453E0000427F4000004261514946002179
:102F300041454B31001814127F1000274545453993
:102F4000003C4A49493000017109050300364949EE
:102F5000493600064949291E0000363600000000A7
:102F600056360000000814224100001414141414F2
:102F7000000041221408000201510906003249599B
:102F8000513E007C1211127C007F49494936003EB7
:102F900041414122007F4141221C007F4949494172
:102FA000007F09090901003E4149497A007F08086C
:102FB000087F0000417F4100002040413F01007F29
:102FC00008142241007F40404040007F020C027FF5
:102FD000007F0408107F003E4141413E007F090907
:102FE0000906003E4151215E007F0919294600462D
:102FF000494949310001017F0101003F4040403F04
:10300000001F2040201F003F4038403F006314084D
:103010001463000708700807006151494543000028
:103020007F41410000552A552A55000041417F004B
:103030000004020102040040404040400000010240
:103040000400002054545478007F48444438003829
:103050004444442000384444487F003854545418B1
:1030600000087E0901020018A4A4A47C007F0804C3
:1030700004780000447D4000004080847D00007F93
:10308000102844000000417F4000007C04180478B0
:10309000007C0804047800384444443800FC2424AC
:1030A00024180018242418FC007C08040408004894
:1030B0005454542000043F444020003C4040207CB5
:1030C000001C2040201C003C4030403C00442810A4
:1030D0002844001CA0A0A07C004464544C44141458
:1030E0001414141400000000000000000000000090
:1030F00000000000000000000000000000000000D0
:1031000000000000000000000000000000000000BF
:1031100000000000000000000000F0F0F0000000DF
:1031200000000000000000000000017F010000001E
:10313000000000000000000000001C1C1C1C00001F
:103140000000000000008060303C1C8C60303C1CA3
:103150000C00000000000000000000000000000063
:10316000000000000000000000000000000000005F
:10317000000000000000000000E00000000000006F
:10318000E000000000868686FE878686868686FEAC
:10319000878686000001011F0101010101011F0155
:1031A0000101010000000080C0402020F8202060C4
:1031B000C0C0000000000003070C0C18FF3060E1E5
:1031C000C18100000000070F0B1010107F101008C5
:1031D0000F07000080C0602020C08000000080C079
:1031E000200000000F1F3020301F8F60D8E6331002
:1031F00030E0C000000000100C030100070F1810A1
:10320000180F0700000080C0602020E0C000000010
:103210000000000080E0271F78E8C4070304C43CD6
:1032200004040000070F18101010110B070F1810DE
:1032300010100C0000808C4C7C3800000000000056
:10324000000000000000000000000000000000007E
:10325000000000000000000000000000000000006E
:1032600000000000000000000000000000C060300E
:1032700018080400000000000000007CFF010000AE
:1032800000000000000000000000000003070C1810
:1032900030204000000408183060C000000000002A
:1032A0000000000000000000000001FF7C000000A2
:1032B0000000000000402030180C07030000000050
:1032C0000000000000000000000000C0C0C00000BE
:1032D000000000000000426666242818FF1824241D
:1032E00066664200000000000000000303030000C7
:1032F000000000000000000000000000800000004E
:10330000000000000000101010101010FF1010102E
:10331000101010000000000000000000030000007A
:10332000000000000000000000000000000000009D
:10333000000000000000000000000000000000008D
:103340000000000000808C4C7C3800000000000071
:10335000000000000000000000000000000000006D
:1033600000000000001010101010101010101010AD
:10337000101010000000000000000000000000001D
:10338000000000000000000000000000000000003D
:10339000000000000000000000000000000000002D
:1033A0000000000000001C1C1C18000000000000B1
:1033B000000000000000000000000000000000C04D
:1033C00030180400000000000080C0301806030020
:1033D000000000000040301806010000000000005E
:1033E0000000000000000000C0C06020202020403D
:1033F000C00000000000FCFF03000000000000000F
:1034000001FFFE0000000003060C18101010180841
:103410000E03000000000080808080C0E0000000FB
:103420000000000000000000000000FFFF0000009E
:1034300000000000000000101010101F1F101010DE
:10344000100000000000804040202020202060C0AC
:10345000C0800000000003020000008040203018FF
:103460000F0700000000181C1A191918181818184E
:103470001C070000000080C040202020206040C0C9
:1034800080000000000003030000101010182867DF
:10349000C38000000000070F101010101010180C4F
:1034A000070300000000000000000000C0E0F0F092
:1034B000000000000080C0B09884828180FFFFFF80
:1034C000808080000000000000001010101F1F1FEF
:1034D0001010100000000000E0606060606060603C
:1034E000606000000000003E231008080808183043
:1034F000F0C000000000070B101010101010180C86
:103500000F0300000000000080C040202020202089
:10351000E0C000000000FCFF21101808080808188F
:1035200030F0C000000001070E081810101010182D
:103530000C070300000080E060606060606060E095
:103540006020000000000300000000C0300C0201F9
:10355000000000000000000000001E1F000000002E
:1035600000000000000080C04020202020202040DB
:10357000C08000000080C3672C181810303070E83D
:10358000C783000000070F0C181010101010180847
:103590000F070000000080C060202020202040C0D5
:1035A00080000000001F3F3060404040406020101D
:1035B000FFFE000000000C1C1010101018080C0773
:1035C00003000000000000000000000000000000F8
:1035D000000000000000000000000E0E0E0E0000B3
:1035E000000000000000000000001C1C1C1C00006B
:1035F00000000000143600080000002060000000F9
:103600000C20000874360008600000204004000010
:103610001C20000800000000000000000000000066
:10362000000000000000000000000000000000009A
:10363000000000000000000000000000000000008A
:10364000000000000000000000000000000000007A
:103650006666A63F00000040000000000000000079
:10366000000000000000000000000000000000005A
:043670000000000056
:040000050800018965
:00000001FF
