:020000040800F2
:10000000500800209D010008A5010008A701000874
:10001000A9010008AB010008AD01000800000000C4
:10002000000000000000000000000000AF01000818
:10003000B101000800000000B3010008B50100088C
:10004000B7010008B7010008B7010008B7010008B0
:10005000B7010008B7010008B7010008B7010008A0
:10006000B7010008B7010008B7010008B701000890
:10007000B7010008B7010008B7010008B701000880
:10008000B7010008B7010008B7010008B701000870
:10009000B7010008B7010008B7010008B701000860
:1000A000B7010008B7010008B7010008B701000850
:1000B000B7010008B7010008B7010008B701000840
:1000C000B7010008B7010008B7010008B701000830
:1000D000B7010008B7010008B7010008B701000820
:1000E000B7010008B7010008B7010008B701000810
:1000F000B7010008B7010008B7010008B701000800
:10010000B7010008B7010008B7010008B7010008EF
:10011000B7010008B7010008B7010008B7010008DF
:10012000B7010008B7010008B7010008B7010008CF
:10013000B7010008B7010008B7010008B7010008BF
:10014000B7010008B7010008B7010008B7010008AF
:10015000B7010008B7010008B7010008B70100089F
:10016000B7010008B7010008B7010008B70100088F
:10017000B7010008B7010008B7010008B70100087F
:10018000B7010008B7010008DFF80CD000F020F834
:1001900000480047C1090008500800200648804771
:1001A00006480047FEE7FEE7FEE7FEE7FEE7FEE75C
:1001B000FEE7FEE7FEE7FEE74509000889010008C3
:1001C000421C10F8011B0029FBD1801A7047000067
:1001D000064C074D06E0E06840F0010394E8070094
:1001E00098471034AC42F6D3FFF7D2FF3C17000813
:1001F0005C17000870B58C1810F8015B15F0070348
:1002000001D110F8013B2A1106D110F8012B03E0AF
:1002100010F8016B01F8016B5B1EF9D12B0705D4B7
:100220000023521E0DD401F8013BFAE710F8013B00
:10023000CB1A921C03E013F8015B01F8015B521E1C
:10024000F9D5A142D8D3002070BD4FF0E021096953
:1002500021F004014FF0E022116143F2D401414347
:100260005161002191611146096941F0010111615B
:1002700000BF4FF0E021096901F480310029F8D076
:100280004FF0E021096921F001014FF0E0221161F6
:10029000704700001548006840F0010013490860ED
:1002A0001348006820F4404011490860084600687F
:1002B00040F4804008600846406820F080004860B4
:1002C0000846806820F4404088600846806840F412
:1002D000004088600846C06820F44040C860084676
:1002E000C06840F48040C860704700003038024069
:1002F0000000024010B500F0A5F800F09DF800F0F5
:1003000001F90021AE2000F035FA0021022000F0B2
:1003100031FA0021102000F02DFA0021402000F0D9
:1003200029FA0021812000F025FA0021CF2000F0D9
:1003300021FA0021A12000F01DFA0021C82000F0C0
:1003400019FA0021A62000F015FA0021A82000F0DB
:1003500011FA00213F2000F00DFA0021D32000F017
:1003600009FA0021084600F005FA0021D52000F026
:1003700001FA0021802000F0FDF90021D92000F0D1
:10038000F9F90021F12000F0F5F90021DA2000F060
:10039000F1F90021122000F0EDF90021DB2000F03E
:1003A000E9F90021402000F0E5F90021202000F0CB
:1003B000E1F90021022000F0DDF900218D2000F09C
:1003C000D9F90021142000F0D5F90021A42000F073
:1003D000D1F90021A62000F0CDF90021AF2000F0D6
:1003E000C9F90021AF2000F0C5F900F005F800219F
:1003F000084600F09FF810BD70B5002419E004F124
:10040000B001C8B2002100F0B5F90021022000F0CF
:10041000B1F90021102000F0ADF9002505E001211F
:10042000002000F0A7F9681CC5B2802DF7DB601C26
:10043000C4B2082CE3DB70BD8020014908807047FE
:10044000180402402C48006840F003002A49086064
:100450002A48006820F04060284908600846006883
:1004600040F080600860081D006820F40050091DFD
:100470000860081D006820F04060091D08600846FB
:10048000006840F0006008601D48006820F04040AF
:100490001B4908600846006840F080400860084634
:1004A000406820F4004048600846806820F04040E2
:1004B00088600846806840F0004088600F48006807
:1004C00020F440400D4908600846006840F4804030
:1004D0000860081D006820F08000091D0860081DE4
:1004E000006820F44040091D08600846006840F498
:1004F000004008600020704730380240000402408D
:100500000000024010B54FF4005006490880192041
:10051000FFF79BFE4FF400500249891E088000201F
:1005200010BD00001A040240802001490880704775
:100530001A04024070B504460D46A01CC4B205F171
:10054000B001C8B2002100F015F9102141EA1410E1
:10055000002100F00FF904F00F0141F0010000212B
:1005600000F008F970BD00002DE9F04107460E4685
:10057000154631463846FFF7DDFF002408E0104AF3
:1005800002EB8511085D012100F0F4F8601CC4B293
:10059000102CF4DB701CC1B23846FFF7CBFF0024EF
:1005A0000AE06900491C064A02EB4111085D01217D
:1005B00000F0E0F8601CC4B2102CF2DBBDE8F08162
:1005C000090000202DE9F04104460F4615469846E3
:1005D000002616E0AA5D43463946204600F016F88C
:1005E000B8F1180F03D104F11000C4B202E004F115
:1005F0000800C4B2782C02DD0024B81CC7B2701CFD
:10060000C6B2A85D0028E5D1BDE8F0812DE9F0472C
:1006100080460E4691461F4600250024A9F1200081
:10062000C5B2B8F17F0F02DDA046B01CC6B2182FCC
:100630003DD131464046FFF77DFF00240AE005EB3F
:10064000450104EB0111384A505C012100F092F899
:10065000601CC4B2102CF2DB701CC1B24046FFF724
:1006600069FF00240BE005EB450104EB011110319B
:100670002D4A505C012100F07DF8601CC4B2102CA2
:10068000F1DBB01CC1B24046FFF754FF00240BE081
:1006900005EB450104EB01112031234A505C012197
:1006A00000F068F8601CC4B2102CF1DB39E0102FA8
:1006B00024D131464046FFF73DFF002408E004EB1B
:1006C00005111A4A505C012100F054F8601CC4B2B4
:1006D000082CF4DB701CC1B24046FFF72BFF00244E
:1006E00009E004EB05110831104A505C012100F0CB
:1006F00041F8601CC4B2082CF3DB12E031464046DE
:10070000FFF718FF00240AE005EB4501084A02EB59
:100710004101085D012100F02DF8601CC4B2062CD7
:10072000F2DBBDE8F08700002C120008140A000874
:10073000041000082DE9F04106460F461546002436
:100740000EE028780A49095D884207D1E2B21021FB
:1007500001FB0461C8B23946FFF706FF6D1C641C3B
:100760000348FFF72DFDA042EBD8BDE8F081000063
:100770000000002070B505460C4624B14FF400403F
:100780000749088303E04FF4004005494883FFF719
:10079000CBFE284600F070F8FFF74EFE70BD00005B
:1007A000000002402F48006840F480502D49086046
:1007B0002C481438006840F002002A4914390860B7
:1007C0002948006820F47C602749086008460068D2
:1007D00040F42860086024480830006820F47C60F9
:1007E0002149083108600846006840F42860086024
:1007F0001D48203000681D4908401B492031086011
:10080000084600681A49084317492031086019480A
:10081000008840F00400174908800846008840F42A
:10082000007008800846008840F480700880084600
:10083000008840F0200008800846008820F400600E
:1008400008800846008820F080000880084600885C
:1008500020F0030008800846008840F0400008802F
:10086000704700004438024000040240FF0F00FFC0
:100870000050550000300140014600BF0948008982
:1008800000F002000028F9D00648818100BF054829
:10089000008900F001000028F9D002488089C0B228
:1008A00070470000003001402248006840F080504E
:1008B000204908602048006840F440401E49086014
:1008C0001C48383800681B493839086008460068F9
:1008D00008600846006840F4805008601748091F07
:1008E0000860081F006840F08070091F086000BFA2
:1008F00010484038006800F000700028F8D040F23E
:1009000002700F4908600B483838006820F0030077
:100910000849383908600846006840F0020008605D
:1009200000BF04483838006800F00C000828F8D1EF
:10093000704700004038024000700040106401071A
:10094000003C024010B51248006840F00100104918
:10095000086000200E49083108600D4800680D4904
:1009600008400B4908600C48091D0860081F006812
:1009700020F48020091F0860002005490C31086020
:10098000FFF792FF4FF000600449086010BD0000BF
:1009900000380240FFFFF6FE1030002408ED00E0B2
:1009A00002E008C8121F08C1002AFAD17047704738
:1009B000002001E001C1121F002AFBD17047000096
:1009C000FFF7F0FEFFF766FC0D48406940F080003D
:1009D0000B494861FFF78EFC10E00948406920F0A0
:1009E00080000749486107A200210846FFF7A2FEE0
:1009F000032307A219460020FFF7E4FDEDE70000FE
:100A000000000240D6C7C4DCCAD6B1ED0000000029
:100A1000383937000000000000000000000000002E
:100A200000000000000000F800000000000000339B
:100A30003000000000100C06100C06000000000042
:100A40000000000040C07840C0784000043F04042B
:100A50003F040400007088FC08300000001820FFEC
:100A6000211E0000F008F000E018000000211C0327
:100A70001E211E0000F00888700000001E212324A3
:100A80001927211010160E000000000000000000C1
:100A900000000000000000E0180402000000000751
:100AA0001820400000020418E00000000040201858
:100AB00007000000404080F0804040000202010F2B
:100AC00001020200000000F0000000000101011F0F
:100AD00001010100000000000000000080B0700073
:100AE0000000000000000000000000000001010103
:100AF0000101010100000000000000000030300092
:100B0000000000000000000080601804006018066B
:100B10000100000000E010080810E000000F1020A5
:100B200020100F00001010F8000000000020203FEF
:100B30002020000000700808088870000030282479
:100B4000222130000030088888483000001820201A
:100B500020110E000000C02010F80000000704243F
:100B6000243F240000F80888880808000019212084
:100B700020110E0000E0108888180000000F1120DE
:100B800020110E0000380808C83808000000003F97
:100B9000000000000070880808887000001C2221F6
:100BA00021221C0000E010080810E00000003122A3
:100BB00022110F00000000C0C00000000000003043
:100BC0003000000000000080000000000000806095
:100BD0000000000000008040201008000001020416
:100BE00008102000404040404040400004040404FD
:100BF00004040400000810204080000000201008B9
:100C000004020100007048080808F00000000030ED
:100C100036010000C030C828E810E000071827247B
:100C200023140B000000C038E0000000203C230229
:100C30000227382008F8888888700000203F20208C
:100C400020110E00C03008080808380007182020BE
:100C50002010080008F808080810E000203F2020B5
:100C600020100F0008F88888E8081000203F202096
:100C70002320180008F88888E8081000203F20008A
:100C800003000000C03008080838000007182020C2
:100C9000221E020008F808000008F808203F210181
:100CA00001213F20000808F8080800000020203F2C
:100CB0002020000000000808F8080800C08080809C
:100CC0007F00000008F888C028180800203F200195
:100CD0002638200008F8080000000000203F2020EF
:100CE0002020300008F8F800F8F80800203F003F06
:100CF000003F200008F830C00008F808203F20001E
:100D000007183F00E01008080810E0000F1020202E
:100D100020100F0008F808080808F000203F210103
:100D200001010000E01008080810E0000F1824245A
:100D300038504F0008F8888888887000203F2000CD
:100D4000030C302000708808080838000038202183
:100D500021221C00180808F8080818000000203F8D
:100D60002000000008F808000008F808001F2020F4
:100D700020201F000878880000C8380800000738C5
:100D80000E010000F80800F80008F800033C070016
:100D9000073C0300081868808068180820302C037E
:100DA000032C30200838C800C83808000000203F55
:100DB0002000000010080808C83808002038262144
:100DC00020201800000000FE020202000000007F48
:100DD00040404000000C30C0000000000000000156
:100DE0000638C00000020202FE0000000040404041
:100DF0007F00000000000402020204000000000066
:100E000000000000000000000000000080808080E2
:100E100080808080000202040000000000000000CA
:100E20000000000000008080808000000019242263
:100E300022223F2008F8008080000000003F11209F
:100E400020110E000000008080800000000E1120A4
:100E500020201100000000808088F800000E112082
:100E600020103F200000808080800000001F222290
:100E700022221300008080F0888888180020203FFC
:100E8000202000000000808080808000006B94940F
:100E90009493600008F8008080800000203F2100CB
:100EA00000203F2000809898000000000020203F94
:100EB00020200000000000809898000000C0808082
:100EC000807F000008F8000080808000203F24021E
:100ED0002D302000000808F8000000000020203F0E
:100EE000202000008080808080808000203F2000C3
:100EF0003F20003F8080008080800000203F210054
:100F000000203F200000808080800000001F202003
:100F100020201F00808000808000000080FFA12032
:100F200020110E000000008080808000000E112043
:100F300020A0FF80808080008080800020203F21D2
:100F40002000010000008080808080000033242485
:100F500024241900008080E0808000000000001F31
:100F6000202000008080000000808000001F2020E2
:100F700020103F20808080000080808000010E30A3
:100F80000806010080800080008080800F300C0304
:100F90000C300F0000808000808080000020312E07
:100FA0000E312000808080000080808080818E70E3
:100FB0001806010000808080808080000021302C95
:100FC0002221300000000000807C020200000000AE
:100FD000003F404000000000FF0000000000000053
:100FE000FF0000000002027C800000000040403F43
:100FF00000000000000601010202040400000000DD
:10100000000000000000000000000000002F0000B1
:1010100000000700070000147F147F1400242A7FBB
:101020002A1200626408132300364955225000003A
:101030000503000000001C224100000041221C00AA
:101040000014083E08140008083E0808000000A02C
:101050006000000808080808000060600000002028
:1010600010080402003E5149453E0000427F400006
:10107000004261514946002141454B31001814128C
:101080007F10002745454539003C4A494930000159
:101090007109050300364949493600064949291EA8
:1010A000000036360000000056360000000814220A
:1010B000410000141414141400004122140800020A
:1010C0000151090600324959513E007C1211127C2F
:1010D000007F49494936003E41414122007F41415C
:1010E000221C007F49494941007F09090901003E4E
:1010F0004149497A007F0808087F0000417F41008C
:10110000002040413F01007F08142241007F404001
:101110004040007F020C027F007F0408107F003EE9
:101120004141413E007F09090906003E4151215ECF
:10113000007F091929460046494949310001017FCC
:101140000101003F4040403F001F2040201F003F62
:101150004038403F00631408146300070870080714
:1011600000615149454300007F41410000552A5527
:101170002A55000041417F000004020102040040A2
:1011800040404040000001020400002054545478C4
:10119000007F4844443800384444442000384444E4
:1011A000487F00385454541800087E090102001882
:1011B000A4A4A47C007F080404780000447D4000BF
:1011C000004080847D00007F102844000000417FA3
:1011D0004000007C04180478007C0804047800387F
:1011E0004444443800FC242424180018242418FC07
:1011F000007C0804040800485454542000043F4470
:101200004020003C4040207C001C2040201C003C32
:101210004030403C004428102844001CA0A0A07C82
:10122000004464544C4414141414141400000000BA
:1012300000000000000000000000000000000000AE
:10124000000000000000000000000000000000009E
:10125000000000000000000000000000000000008E
:101260000000F0F0F00000000000000000000000AE
:101270000000017F010000000000000000000000ED
:1012800000001C1C1C1C000000000000000080600E
:10129000303C1C8C60303C1C0C0000000000000046
:1012A000000000000000000000000000000000003E
:1012B000000000000000000000000000000000002E
:1012C00000E0000000000000E000000000868686CC
:1012D000FE878686868686FE878686000001011F39
:1012E0000101010101011F01010101000000008055
:1012F000C0402020F8202060C0C000000000000393
:10130000070C0C18FF3060E1C18100000000070FDE
:101310000B1010107F1010080F07000080C0602015
:1013200020C08000000080C0200000000F1F30207F
:10133000301F8F60D8E6331030E0C000000000108E
:101340000C030100070F1810180F0700000080C0E1
:10135000602020E0C00000000000000080E0271FA7
:1013600078E8C4070304C43C04040000070F181005
:101370001010110B070F181010100C0000808C4C6F
:101380007C380000000000000000000000000000A9
:10139000000000000000000000000000000000004D
:1013A000000000000000000000000000000000003D
:1013B0000000000000C060301808040000000000B9
:1013C0000000007CFF0100000000000000000000A1
:1013D0000000000003070C1830204000000408182B
:1013E0003060C000000000000000000000000000AD
:1013F000000001FF7C0000000000000000402030E1
:10140000180C0703000000000000000000000000AE
:10141000000000C0C0C000000000000000004266E4
:1014200066242818FF182424666642000000000085
:1014300000000003030300000000000000000000A3
:1014400000000000800000000000000000001010FC
:1014500010101010FF1010101010100000000000ED
:101460000000000003000000000000000000000079
:10147000000000000000000000000000000000006C
:1014800000000000000000000000000000808C4C04
:101490007C38000000000000000000000000000098
:1014A000000000000000000000000000001010100C
:1014B000101010101010101010101000000000007C
:1014C000000000000000000000000000000000001C
:1014D000000000000000000000000000000000000C
:1014E00000000000000000000000000000001C1CC4
:1014F0001C180000000000000000000000000000B8
:1015000000000000000000C03018040000000000CF
:101510000080C030180603000000000000403018B2
:1015200006010000000000000000000000000000B4
:10153000C0C0602020202040C00000000000FCFF50
:10154000030000000000000001FFFE000000000397
:10155000060C1810101018080E0300000000008080
:10156000808080C0E000000000000000000000005B
:10157000000000FFFF00000000000000000000105D
:101580001010101F1F1010101000000000008040ED
:1015900040202020202060C0C08000000000030206
:1015A00000000080402030180F0700000000181CC9
:1015B0001A191918181818181C070000000080C004
:1015C00040202020206040C0800000000000030375
:1015D0000000101010182867C38000000000070FDB
:1015E000101010101010180C07030000000000006D
:1015F00000000000C0E0F0F0000000000080C0B07B
:101600009884828180FFFFFF8080800000000000BE
:1016100000001010101F1F1F10101000000000000D
:10162000E060606060606060606000000000003E3C
:101630002310080808081830F0C000000000070B4D
:10164000101010101010180C0F0300000000000004
:1016500080C0402020202020E0C000000000FCFFCF
:10166000211018080808081830F0C0000000010711
:101670000E081810101010180C070300000080E06E
:1016800060606060606060E0602000000000030057
:10169000000000C0300C020100000000000000004B
:1016A00000001E1F0000000000000000000080C0BD
:1016B0004020202020202040C08000000080C36700
:1016C0002C181810303070E8C783000000070F0C8A
:1016D00018101010101018080F070000000080C02C
:1016E00060202020202040C080000000001F3F30EC
:1016F0006040404040602010FFFE000000000C1CD5
:101700001010101018080C07030000000000000063
:1017100000000000000000000000000000000000C9
:1017200000000E0E0E0E0000000000000000000081
:1017300000001C1C1C1C0000000000005C170008BE
:10174000000000204C040000F40100081C190008EF
:101750004C04002004040000B00900081009D6C79A
:10176000C4DCCAD6B1ED1009109453321E325210A7
:1017700006157E4242427E4BFF49010214FF1009CA
:1017800008CC4A49484ACC180F117F88888482E0E7
:101790003E26121252927F0A157E20112A2401073A
:1017A00013FC22222223222A02013C42827F0803C8
:1017B0001202023A04403AFF0602120408101021F5
:1017C000211109FD83412305091129254141C01635
:1017D0000808F80808080810F2121AD61212F26067
:1017E0000010131030100F0808804F201807102029
:1017F0004F801AFEBB49010215FE6BFF4201021524
:10180000FF1BF888012AFF050215F81A1FA32B08F1
:101810007F2004119F80F03B808201080812E2A221
:10182000928A868280A031041840807F172424A4E5
:10183000FEA3221B22CCA9011415080601FF2B01CF
:1018400004010511FF0202025808101010FF109049
:1018500008C3021108080F100444827F01808040F1
:10186000432C10284681A0080F11804020908886C4
:10187000808080838C102040C019211B1807C20370
:1018800016403F080E11020C80608040300FC808DF
:101890000828181F2C027E01430D1206010618604D
:1018A0001D4040407C042BFF44010B1040407F084A
:1018B0000C109088464040202F10100804FE19207C
:1018C0002B808401080811FC828282838280C0619F
:1018D0000219FF080D104042445840C0FFC040505C
:1018E00048467F111B2020791A03400F1203040879
:1018F000102020C079BF0912C0797F1A024001135D
:101900002809060909E6F80C0402010315041E3D26
:0C191000071F3020660A12204121000051
:040000050800018965
:00000001FF
