:020000040800F2
:10000000000500209D010008A5010008A7010008C7
:10001000A9010008AB010008AD01000800000000C4
:10002000000000000000000000000000AF01000818
:10003000B101000800000000B3010008B50100088C
:10004000B7010008B7010008B7010008B92300088C
:10005000B7010008B7010008B7010008B7010008A0
:10006000B7010008B7010008B7010008B701000890
:10007000B7010008B7010008B7010008B701000880
:10008000B7010008B7010008B7010008B701000870
:10009000B7010008B7010008B7010008B701000860
:1000A000B7010008B7010008B7010008B701000850
:1000B000B7010008252D0008B7010008B7010008A6
:1000C000B7010008B7010008B7010008B701000830
:1000D000B7010008B7010008B7010008B701000820
:1000E000B7010008C91E0008B7010008B7010008E1
:1000F000B7010008B7010008B7010008B701000800
:10010000B7010008B7010008B7010008B7010008EF
:10011000B7010008B7010008B7010008B7010008DF
:10012000B7010008B7010008B7010008B7010008CF
:10013000B7010008B7010008B7010008B7010008BF
:10014000B7010008B7010008B7010008B7010008AF
:10015000B7010008B7010008B7010008B70100089F
:10016000B7010008B7010008B7010008B70100088F
:10017000B7010008B7010008B7010008B70100087F
:10018000B7010008B7010008DFF80CD000F05EFCF2
:1001900000480047613800080005002006488047F5
:1001A00006480047FEE7FEE7FEE7FEE7FEE7FEE75C
:1001B000FEE7FEE7FEE7FEE7C92C0008890100081C
:1001C000D2B201E000F8012B491EFBD27047002299
:1001D000F6E710B513460A4604461946FFF7F0FF46
:1001E000204610BDF0B480EA0102D40F4200B2EB09
:1001F000410F02D20246084611464A0042D0C30DC2
:10020000DDB2C1F3C752AD1A202D35DAC1F31601A4
:1002100041F4000204B15242C5F1200602FA06F18F
:100220002A411044B3EBD05F23D0C4B1012DA0EB21
:10023000C35009DCF0BC4FF0004202EAC352DBB20B
:1002400000F5000000F0F5BA400000F1807000EB0E
:10025000C350A0F1807040EAD170490009E049081C
:1002600041EAC071A0EBC35000F50000400800EB6C
:10027000C350F0BC00F0D4BA6142012202EB41014C
:10028000001BF6E7F0BC704781F00041AAE780F060
:100290000040A7E780EA010210B502F000434000E9
:1002A00022D04A001FD0010E01EB1261C0F35600AC
:1002B000C2F3560240F4000042F40002A0FB022008
:1002C00000047F39140400D0401C50EA124001D4CD
:1002D0004000491EC2B20C0604EBD010401C40087E
:1002E000802A02D003E0002010BD20F00100002988
:1002F00000DA0020184310BD30B480EA010202F099
:10030000004530F0004221F0004013D090B1C30D01
:10031000D40DC2F31601C0F31600E41A41F4000133
:1003200040F400027D34914201D3641C00E0490096
:10033000002C02DA30BC002070474FF4000000238C
:10034000914201D3891A034340084FEA4101F7D192
:1003500051B1914202D14FF0004105E002D24FF07D
:10036000010101E06FF0010103EBC450284430BCEF
:1003700000F056BA2DE9FE4F804681EA0300C00F17
:100380000C46009021F0004123F00045B8EB02003C
:10039000A94105D24046214690461C460B460246DE
:1003A00023F00040104347D0270DC7F30A00C3F3E2
:1003B0000A510290401A019040286BDAC3F31300EF
:1003C00040F4801B0098924620B10023D2EB030A30
:1003D00063EB0B0B01985946C0F14002504600F008
:1003E000FEF906460D4650465946019A00F006FAB7
:1003F00010EB08006141002487EA115284EAE77398
:100400001A4340D0009A62B3019A012A4FEA075278
:1004100015DC001B61EB02014FF0004202EA0752BB
:10042000CDE90042001C41F5801132462B4600F018
:100430003DFA03B0BDE8F08F40462146F9E7001BC6
:1004400061EB0201001C41F5801300185B4120188C
:10045000A2F5001747EB030140EAD570B6196D41CC
:1004600011E06D084FEA360645EAC0754FEA0752BB
:10047000001B61EB0201001C41F5801149084FEAA5
:1004800030000019514132462B4603B0BDE8F04F11
:1004900000F0FDB90098012240000023D0EB0202D9
:1004A00063EBE073009821464FEAE074B8EB00007C
:1004B00061EB0401E9E783F000435BE781F0004171
:1004C00058E72DE9FE4F81EA030404F0004421F0CF
:1004D000004100944FF0000B23F0004350EA010468
:1004E0005ED052EA03045BD0C3F30A54C1F30A5549
:1004F0002C44A4F2F3340194A0FB0254C1F3130181
:1005000041F48011C3F3130343F4801301FB02444D
:1005100000FB034E840A970A44EA815447EA835752
:10052000A4FB076802958D0A05FB07854FEA932C0B
:1005300004FB0C542705029D4FEA065847EA16377C
:10054000B5EB08056EEB070C870E920E47EA811794
:1005500042EA8312A7FB0201B6EB0B0164EB000435
:100560002B0D43EA0C335E1844EB1C50DA4651461F
:10057000E7FB0201C5F313044FEA0B3343EA1453BC
:100580004FEA0432019C43EA0603A4F10C040294EE
:10059000009CCDE900B400F089F903B0BDE8F08F0C
:1005A00000200146F9E72DE9F04D81EA030404F04B
:1005B000004B21F0004514464FF0000A23F00041A3
:1005C00050EA050220D054EA01021DD0C5F30A57B3
:1005D0000246C5F31303C1F31300C1F30A5640F4F6
:1005E000801543F48013A7EB0608101BD64608F2CB
:1005F000FD3873EB050002D308F1010801E0921801
:100600005B41B8F1000F03DA00200146BDE8F08D30
:1006100000204FF48011064684460EE0171B73EB52
:10062000050705D3121B63EB050306434CEA010CD7
:1006300049084FEA300092185B4150EA0107EDD1BA
:1006400052EA030012D082EA040083EA050108435B
:1006500005D0101BAB4106D20122002306E0002288
:100660004FF0004302E06FF0010253101AEB060056
:100670004CEB085110EB0A0041EB0B01BDE8F04DCB
:1006800000F005B9C10F80EAE0700844CA0796235C
:10069000002100F0CEB896230022114600F0C9B820
:1006A00020F00040C10DC0F3160040F400007F2987
:1006B00001DA00207047962903DCC1F19601C84099
:1006C000704796398840704700F0004230F0004093
:1006D0000AD0C10D01F56071C0F3160042EA015164
:1006E000C20840071143704700200146704701F0DF
:1006F000004330B421F0004150EA010206D00A0D57
:10070000A2F56072C1F31301002A02DC30BC0020A4
:100710007047440F44EAC104C100E01830BC00EB4C
:10072000C25000F07DB80000002801DBC0F100409D
:10073000002901DBC1F1004181427047002801DB43
:10074000C0F10040002901DBC1F10041884270473F
:1007500030B50B46014600202022012409E021FA91
:1007600002F59D4205D303FA02F5491B04FA02F58E
:100770002844151EA2F10102F1DC30BD2DE9F05F25
:100780000546002092469B46884606468146402400
:100790001BE0284641464746224600F069F9534689
:1007A0005A46C01A914110D311461846224600F00D
:1007B00016F82D1A67EB01084F462246012000214A
:1007C00000F00DF817EB00094E41201EA4F10104C2
:1007D000DFDC484631462A464346BDE8F09F202AE2
:1007E00004DB203A00FA02F1002070479140C2F188
:1007F000200320FA03F3194390407047202A06DBB8
:10080000CB17203A41FA02F043EAE07306E041FADE
:1008100002F3D040C2F120029140084319467047CC
:100820000029A8BF7047401C490008BF20F0010004
:10083000704710B4B0FA80FC00FA0CF050EA0104E2
:1008400004BF10BC704749B1CCF1200421FA04F474
:1008500011FA0CF118BF012121430843A3EB0C014D
:10086000CB1D4FEA00614FEA102042BF002010BCB0
:10087000704700EBC35010440029A4BF10BC704760
:10088000401C490008BF20F0010010BC704710B5A3
:10089000141E73F1000408DA401C41F100019218A3
:1008A0005B411A4301D120F0010010BD2DE9F04D4C
:1008B00092469B4611B1B1FA81F202E0B0FA80F2A1
:1008C00020329046FFF78BFF04460F4640EA0A00AD
:1008D00041EA0B0153465A46084313D0114653EAE6
:1008E000010019D0C8F14002504600F0C1F8054699
:1008F0000E46504659464246FFF771FF084305D061
:10090000012004E020463946BDE8F08D0020054373
:1009100046EAE0762C4337430A986305E40AA0EBE5
:1009200008000022FD0A44EA47540A3002D500209C
:100930000146E9E7010510196941DDE9084500199B
:100940006941BDE8F04DA2E72DE9F04D00231A46BC
:100950001B1A8A4103DB00200146BDE8F08DC1F37C
:100960000A52C1F3130141F480154FF0000BD10777
:1009700002D100186D41521E0027044640F2FF11BB
:10098000384601EB620A3E468046024600204FF49C
:10099000801100F06DF8C2197141BB1846EB0100DF
:1009A000B4EB030C75EB000C04D3E41A65EB000503
:1009B00017460E46241908F101006D41804634287F
:1009C000E3DDF91946EB0600091BA84103D24FF0FD
:1009D000FF32134601E0002213461BEB070046EBF3
:1009E0000A51BDE8F04DFFF752BFC1F30A52C1F3FF
:1009F000130140F2FF3341F480119A4202DA0020E1
:100A00000146704740F233439A42A2F2334202DC7D
:100A1000524200F02DB8FFF7E2BE000030B5041ED0
:100A200071F1000404DB4FF00044404264EB01012B
:100A3000141E73F1000405DB1C464FF000435242C4
:100A400063EB0403994208BF904230BD064C074D4A
:100A500006E0E06840F0010394E80700984710348E
:100A6000AC42F6D3FFF794FBA0610008C061000818
:100A7000202A04DB203A21FA02F00021704721FAF3
:100A800002F3D040C2F1200291400843194670475A
:100A90000D484068052803DD00200B4948600860C8
:100AA0000A484068052802DD0120084948600648D8
:100AB00040680549086008464068044909680844D8
:100AC0000149486070470000000000200800002035
:100AD00030B502464FF6FF7009E0C4B2157884EADB
:100AE0000503521C054C34F8134084EA10200C1EF8
:100AF000A1F10105A9B2F0D130BD000028470008DE
:100B00004FF0E021096921F004014FF0E02211616A
:100B1000C21700EB5272C2F3C702074B1A70194694
:100B2000097801EB4102C2EBC1114FF6FF7202EAF4
:100B3000C101024A11807047180000201A000020ED
:100B40002DE9F04F85B007468946924655464E46F8
:100B5000002194480068FFF7E7FD02D19148076043
:100B600019E190480168384600F03EF90028F7D0B6
:100B70008D4800688D49086070783178C1EB0111AB
:100B800000EB8100C0EB0010B17801EB80004FF466
:100B90007A714843F17801EB810100EB81088448C8
:100BA000C0F80080006881490968401AFA287DDB96
:100BB0008048016880480068FFF766FB02907F4824
:100BC00001680298FFF7BAFD70D879480068764945
:100BD00008607B480078401C7949087079480068B3
:100BE000401C7849086078480068A8EB0000B0F520
:100BF000FA6F7DD308460068012805D1734928683B
:100C0000FFF77AFB04463AE06E480068022806D1F6
:100C10004FF081412868FFF76FFB04462FE06948D9
:100C20000068032805D16A492868FFF765FB044678
:100C300025E064480068042806D14FF08041286808
:100C4000FFF75AFB04461AE05E480068052805D104
:100C500060492868FFF750FB044610E059480068D7
:100C6000072801D12C680AE056480068082805D3F7
:100C700058492868FFF70EFB044600E0002451485D
:100C80000068FFF708FD21460190FFF703FB4FF0D6
:100C900080410290FFF730FB83464A480068FFF727
:100CA000FAFC21460290FFF7F5FA00E050E00490CC
:100CB0004FF080416868FFF71FFB59460190464896
:100CC000FFF7E8FA00900199FFF7E4FA4349029030
:100CD000FFF712FB0390424908680399FFF782FA75
:100CE0003F49086048680499FFF77CFA3C4900E0F6
:100CF00006E048603448C0F80080002031490860B0
:100D00002F48007805280CDA294800682749096827
:100D1000401A40F6B831884203DB002028490870A9
:100D200016E027480078052812DB214800681F4993
:100D30000968401A40F6B831884209DC28488068C2
:100D40001F49097808442649886000201C4908701A
:100D50001748006815490968401AFA281BDB15482E
:100D6000016815480068FFF78FFA02901D48016876
:100D70000298FFF7E3FC0ED80D4800680A490860A6
:100D80000C4801680C480068FFF77EFA029001F0F9
:100D90006BF80A49086003480760114805B0BDE8D0
:100DA000F08F000050000020400000204400002090
:100DB000480000203C00002038000020580000209F
:100DC0005C00002064000020600000200000A040C3
:100DD000000040409A99993F000090400000E14493
:100DE000E80000205400002070B505460C461D4860
:100DF00000781D49087021462846FFF79FFC08D857
:100E000001201849087019480068401C17490860FB
:100E100008E0164800681649086000201349086079
:100E2000104908700F48007878B90F48007860B111
:100E30000F480068022804DA0E492046FFF77EFCBE
:100E400003D80D480460012070BD0748007830B910
:100E50000448007818B1094804600020F4E7002035
:100E6000F2E7000028000020340000202C000020C1
:100E7000300000200000A041380000203C0000208D
:100E800010B5002404E00648005D06490855641CBE
:100E9000182CF8D30449034800F08CF810BD00006A
:100EA0005849000890000020A800002010B5002438
:100EB00004E00648005D06490855641C182CF8D368
:100EC0000449034800F076F810BD0000A04900086E
:100ED00090000020A80000200146002209B900204F
:100EE0007047002204E00448805C8854501CC2B261
:100EF000182AF8DB0878F3E7A800002015480068F6
:100F000040F00200134908601348006820F0404098
:100F1000114908600846006840F080400860081DDC
:100F2000006820F40040091D0860081D006820F0DA
:100F30004040091D08600846006840F00040086015
:100F400005481430006820F400400349143108605B
:100F500070470000303802400004024010B5002401
:100F600004E00648005D06490855641C182CF8D3B7
:100F70000449034800F01EF810BD0000284900088D
:100F800090000020A800002010B5002404E00648CE
:100F9000005D06490855641C182CF8D30449034821
:100FA00000F008F810BD0000704900089000002013
:100FB000A80000202DE9F04104460D46012712212A
:100FC000201DFFF785FD0646E68218222146662091
:100FD00000F03CF8052002F0E1FB182229466620CB
:100FE00000F00BF8EE8A1221281DFFF771FDB042C8
:100FF00000D000273846BDE8F0812DE9F0410646D3
:101000000D46174600F0CCF8012101EB4601C8B2AD
:1010100000F042FB00F0BCFA10B10020BDE8F08106
:10102000002407E000F0DAFA2855002000F008FB61
:10103000601CC4B2172CF5DB00F0D0FAE875012073
:1010400000F0FEFA00F0CCF80020E7E72DE9F041CF
:1010500005460E46174600F0A3F86906080E00F094
:101060001BFB00F095FA10B10020BDE8F0810024D0
:1010700009E0305D00F010FB00F08AFA08B10020B2
:10108000F3E7601CC4B2182CF3DB00F0A9F80020D1
:10109000EBE700001B48006840F0020019490860B7
:1010A0001948006820F44030174908600846006875
:1010B00040F480300860081D006820F48070091D2D
:1010C0000860081D006820F44030091D08600846CB
:1010D000006840F4003008600A48006840F00200F0
:1010E000084908600848006820F440200649086064
:1010F00005480C30006820F4402003490C3108609A
:101100007047000030380240000402402248006866
:1011100040F00200204908602048006820F4403078
:101120001E4908600846006840F480300860081DC9
:10113000006820F48070091D0860081D006820F414
:101140004030091D08600846006840F4003008601F
:101150001148006840F002000F4908600F4800681D
:1011600020F440200D4908600846006840F48020C3
:101170000860081D006820F40070091D0860081D43
:10118000006820F44020091D08600846006840F40B
:101190000020086070470000303802400004024020
:1011A00010B5FFF7B3FF0D48006840F400700B491D
:1011B00008600846006840F48070086008460068CF
:1011C00020F400700860062002F004FB0348006869
:1011D00020F480700149086010BD00001404024032
:1011E00010B5FFF793FF0F48006840F480700D4979
:1011F00008600846006820F400700860042002F0CF
:10120000E9FA0848006840F40070064908600420C4
:1012100002F0E0FA0348006840F480700149086079
:1012200010BD00001404024010B54FF4807019493D
:10123000088018481A38006820F4402015491A39E7
:1012400008600846006840F480200860481511498D
:10125000891E0880022002F0BDFA4FF400700D498B
:101260000880032002F0B6FA4FF480700949891E05
:101270000880042002F0AEFA4FF48070054908801F
:10128000022002F0A7FA4FF400700249891E08807C
:1012900010BD00001A04024010B54FF480701949C7
:1012A000088018481A38006820F4402015491A3977
:1012B00008600846006840F480200860481511491D
:1012C000891E0880022002F085FA4FF400700D4953
:1012D000891E0880032002F07DFA4FF480700949CE
:1012E000891E0880042002F075FA4FF480700549C9
:1012F0000880022002F06EFA4FF400700149891E46
:10130000088010BD1A04024070B5064600251F482B
:10131000006820F440201D49086008460068086005
:10132000002428E04FF4807018491A310880052005
:1013300002F050FA4FF480701449183108800420EC
:1013400002F048FA11481030006800F4007008B14B
:10135000012000E00020012803D180202041054326
:1013600002E08020204185434FF4807007491A3104
:101370000880601CC4B2082CD4DB16B9FFF754FFF8
:1013800001E0FFF789FF284670BD0000000402401D
:1013900070B505461C48006820F440201A490860D2
:1013A0000846006840F480200860002423E04FF4E1
:1013B000807015491A31088080202041284018B1DA
:1013C0004815891E088004E04FF400700E491A3158
:1013D0000880032002F0FEF94FF480700A491831AA
:1013E0000880032002F0F6F94FF4807006491A31A4
:1013F0000880601CC4B2082CD9DB4FF4007002498D
:101400001831088070BD00000004024010B50C487F
:10141000006820F440200A4908600846006840F44B
:10142000802008604815064918310880401008805F
:101430004000891C0880062002F0CCF910BD000095
:101440000004024010B51148006820F440200F4904
:1014500008600846006840F48020086088150B4941
:101460001A31088040000880042002F0B3F94FF4DC
:101470008070064918310880042002F0ABF94FF45F
:10148000007002491831088010BD000000040240BD
:1014900010B500241748006820F440201549086062
:1014A0000846006808604815124918310880012074
:1014B00002F090F94FF480700E4918310880012035
:1014C00002F088F907E0601CC4B2FA2C03DDFFF7D4
:1014D000B9FF012010BD07481030006800F400700B
:1014E00000B1F0E74FF4807002491A310880002003
:1014F000F0E70000000402400B48006840F00100E3
:10150000094908600948006820F00300074908609D
:101510000846C06820F00300C8600846C06840F074
:101520000100C860704700003038024000000240EF
:101530001548006840F0010013490860134800682E
:1015400020F44040114908600846006840F480409B
:1015500008600846406820F08000486008468068BF
:1015600020F4404088600846806840F4004088606D
:101570000846C06820F44040C8600846C06840F48F
:101580008040C860704700003038024000000240D0
:1015900010B50024FFF77EFD0F48006820F480702E
:1015A0000D4908600846006840F48070086001201A
:1015B00002F010F90848001F006800F4007000B144
:1015C0000124062002F006F90348006820F4807028
:1015D00001490860204610BD1404024070B5002582
:1015E000FFF758FD00241FE01448006820F48070C5
:1015F00012490860052002F0EDF81048006840F438
:1016000080700E490860042002F0E4F80B48001FC7
:10161000006800F4007010B18020204105430420D0
:1016200002F0D8F8601CC4B2082CDDDB0348006867
:1016300020F4807001490860284670BD14040240FF
:1016400010B50446FFF762FD1248006820F4807070
:10165000104908602CB10846006840F4007008602A
:1016600005E00C48006820F400700A490860032077
:1016700002F0B0F80748006840F48070054908603F
:10168000032002F0A7F80348006820F480700149A5
:10169000086010BD1404024070B50546FFF736FD22
:1016A000002423E01648006820F480701449086084
:1016B00080202041284028B10846006840F400708E
:1016C000086005E00E48006820F400700C490860CE
:1016D000032002F07FF80A48006840F4807008494F
:1016E0000860032002F076F8601CC4B2082CD9DB35
:1016F0000348006820F480700149086070BD000054
:10170000140402402DE9FC4104460D4616466B4682
:1017100006223B21682000F072F80746BFB99DF809
:1017200001009DF8001040EA012000B220809DF8E1
:1017300003009DF8021040EA012000B228809DF8C5
:1017400005009DF8041040EA012000B230803846C0
:10175000BDE8FC8110B580216B2000F0CCF864203E
:1017600002F01CF800216B2000F0C5F8002000F00A
:1017700080F8322000F0A2F80021382000F0BBF8F9
:1017800000216A2000F0B7F80021232000F0B3F810
:101790008021372000F0AFF8752000F013F80446E0
:1017A000682C0BD101216B2000F0A5F807216C20DB
:1017B00000F0A1F8322000F081F801E0012010BD16
:1017C0000020FCE770B50446FFF720FED020FFF7AD
:1017D000DFFDFFF75DFE2046FFF7DAFDFFF758FE5D
:1017E000FFF714FED120FFF7D3FDFFF751FE0120D4
:1017F000FFF78AFD0546FFF725FE284670BD2DE957
:10180000F04106460F4614461D46FFF7FFFD002136
:1018100041EA4601C8B2FFF7BBFDFFF739FE20B130
:10182000FFF710FE0120BDE8F0813846FFF7B0FD5C
:10183000FFF72EFEFFF7EAFD012101EB4601C8B2DA
:10184000FFF7A6FDFFF724FE0DE0012C04D10120D7
:10185000FFF75AFD287003E00020FFF755FD2870C0
:10186000601EC4B26D1C002CEFD1FFF7EBFD002011
:10187000D9E710B50446E006010E1C2000F03BF845
:1018800010BD70B504460025BC2C01DB012510E01D
:10189000622C01DB02250CE02A2C01DB032508E089
:1018A000142C01DB042504E00A2C01DB052500E0F3
:1018B000062529461A2000F01EF870BD70B50446B2
:1018C000B4F57A7F01DD4FF47A74042C00DA042435
:1018D0004FF47A7090FBF4F0401EC5B229461920EF
:1018E00000F009F80546264604EBD671C1F34F0017
:1018F000FFF7C7FF70BD70B505460C46FFF786FDC4
:10190000D020FFF745FDFFF7C3FD18B1FFF79AFDA3
:10191000012070BD2846FFF73BFDFFF7B9FD2046CB
:10192000FFF736FDFFF7B4FD18B1FFF78BFD01207F
:10193000EFE7FFF787FD0020EBE70000164800689F
:1019400040F00200144908601448006820F4401078
:10195000124908600846006840F480100860081DBD
:10196000006820F48060091D0860081D006820F4EC
:101970004010091D08600846006840F40010086027
:10198000081D006820F44010091D08600846006822
:1019900040F4801008607047303802400004024074
:1019A000F0B5164D2D684FF6FF063540134E3560E5
:1019B00035462D68124E46EA002635430F4E3560F7
:1019C000C0F107060125B5406D1E0D40C61EB5408D
:1019D000012707FA06F6761E16403543ECB22507B6
:1019E0002E0E084DEE5403F01F060125B5405E098A
:1019F000B60006F1E026C6F80051F0BD0CED00E09F
:101A00000000FA0500E400E010B500F0CBF800F0AB
:101A10009DF800F027F90021AE2000F00DFA00211A
:101A2000022000F009FA0021102000F005FA002140
:101A3000402000F001FA0021812000F0FDF9002192
:101A4000CF2000F0F9F90021A12000F0F5F90021E4
:101A5000C82000F0F1F90021A62000F0EDF90021E6
:101A6000A82000F0E9F900213F2000F0E5F900216D
:101A7000D32000F0E1F90021084600F0DDF9002153
:101A8000D52000F0D9F90021802000F0D5F90021FF
:101A9000D92000F0D1F90021F12000F0CDF900218A
:101AA000DA2000F0C9F90021122000F0C5F9002168
:101AB000DB2000F0C1F90021402000F0BDF9002139
:101AC000202000F0B9F90021022000F0B5F9002132
:101AD0008D2000F0B1F90021142000F0ADF90021B3
:101AE000A42000F0A9F90021A62000F0A5F900210A
:101AF000AF2000F0A1F90021AF2000F09DF900F027
:101B000005F80021084600F0C5F810BD70B50024A6
:101B100019E004F1B001C8B2002100F08DF90021F4
:101B2000022000F089F90021102000F085F900253D
:101B300005E00121002000F07FF9681CC5B2802D6E
:101B4000F7DB601CC4B2082CE3DB70BD80200149C8
:101B500008807047180402402DE9F05F05460E46E4
:101B600017469846DDF828A04FF0000B344615E0E4
:101B70002146284600F08EF8A9460BE059460BF1A5
:101B8000010B1AF80100012100F056F909F10100DA
:101B900000F0FF09B945F1DB601CC4B24445E7DB46
:101BA000BDE8F09F2C48006840F003002A49086017
:101BB0002A48006820F0406028490860084600680C
:101BC00040F080600860081D006820F40050091D86
:101BD0000860081D006820F04060091D0860084684
:101BE000006840F0006008601D48006820F0404038
:101BF0001B4908600846006840F0804008600846BD
:101C0000406820F4004048600846806820F040406A
:101C100088600846806840F0004088600F4800688F
:101C200020F440400D4908600846006840F48040B8
:101C30000860081D006820F08000091D0860081D6C
:101C4000006820F44040091D08600846006840F420
:101C50000040086000207047303802400004024015
:101C60000000024010B54FF40050064908801920CA
:101C700001F094FD4FF400500249891E08800020B5
:101C800010BD00001A0402408020014908807047FE
:101C90001A04024070B504460D46A01CC4B205F1FA
:101CA000B001C8B2002100F0C7F8102141EA1410B9
:101CB000002100F0C1F804F00F0141F00100002103
:101CC00000F0BAF870BD2DE9F04104460F46154604
:101CD0009846002616E0AA5D43463946204600F0A5
:101CE00017F8B8F1180F03D104F11000C4B202E0E4
:101CF00004F10800C4B2782C02DD0024B81CC7B27D
:101D0000701CC6B2A85D0028E5D1BDE8F0810000D6
:101D10002DE9F04780460E4691461F4600250024D7
:101D2000A9F12000C5B2B8F17F0F02DDA046B01CBA
:101D3000C6B2182F3DD131464046FFF7ABFF002415
:101D40000AE005EB450104EB0111384A505C012122
:101D500000F072F8601CC4B2102CF2DB701CC1B22F
:101D60004046FFF797FF00240BE005EB450104EB2D
:101D7000011110312D4A505C012100F05DF8601C0A
:101D8000C4B2102CF1DBB01CC1B24046FFF782FF99
:101D900000240BE005EB450104EB01112031234A3F
:101DA000505C012100F048F8601CC4B2102CF1DB3B
:101DB00039E0102F24D131464046FFF76BFF002455
:101DC00008E004EB05111A4A505C012100F034F8D8
:101DD000601CC4B2082CF4DB701CC1B24046FFF793
:101DE00059FF002409E004EB05110831104A505C4A
:101DF000012100F021F8601CC4B2082CF3DB12E0D2
:101E000031464046FFF746FF00240AE005EB450156
:101E1000084A02EB4101085D012100F00DF8601C49
:101E2000C4B2062CF2DBBDE8F087000018420008BF
:101E3000003A0008F03F000870B505460C4624B192
:101E40004FF400400749088303E04FF40040054980
:101E50004883FFF719FF284600F022FCFFF776FEC3
:101E600070BD00000000024070B5054613480668CA
:101E700000241348006804280ADA12481049096847
:101E800040F821500E480068401C0D49086013E0DE
:101E900004210C4801F02AFC0646012408E0094808
:101EA00050F82410601E074A42F82010601CC4B28B
:101EB000042CF4DB0348C560304670BD5800002098
:101EC00024000020CC00002010B50A48006800F46F
:101ED000807040B10748006820F4807005490860B0
:101EE00005A000F06BFF0748006840F4003005498A
:101EF000086010BD0C280040414C41524D2041214A
:101F00000D0A0000143C0140014600BF081100EB1F
:101F10008000420001F00F001044C0B2704701463B
:101F2000002204E0501CC2B2A1F10A00C1B20A2989
:101F3000F8DA100741EA106070470000F0B5044677
:101F40000D4616461F46002300BF00F04BFA00283E
:101F5000FBD10A480368C3F30740FFF7D5FF2070A1
:101F6000C3F30420FFF7D0FF287003F03F00FFF712
:101F7000CBFF3070C3F342303870F0BD042800400E
:101F8000F0B504460D4616461F46002300BF00F07C
:101F900029FA0028FBD10A480368C3F30540FFF77C
:101FA000B3FF2070C3F30620FFF7AEFF287003F0E5
:101FB0007F00FFF7A9FF3070C3F387503870F0BD82
:101FC0000028004010B541F6FF743B48006840F01F
:101FD0008050394908603948006840F480703749BA
:101FE0000860002000F08EF845F25001884260D071
:101FF00031483030006840F001002F49303108602E
:1020000004E0601E84B2052001F0C8FB34B12A4808
:102010003030006800F002000028F2D00CB9012036
:1020200010BD25483030006840F4807022493031BE
:1020300008600846006840F400400860CA20204953
:1020400008605320086000F03DF808B10220E7E77F
:10205000FF201B49143908600846006840F4FE0060
:10206000086017481C38006820F0400014491C39EB
:102070000860081D006820F08000091D0860FF202E
:102080000F490860002338223A210E2000F004F99D
:10209000012305220921112000F0CCF80A2318227F
:1020A0000F21042000F038F845F25001002000F024
:1020B000BDF90020B4E70000403802400070004045
:1020C000242800404FF480310D48006800F04000A3
:1020D00008B1002070470A48006840F08000084AB4
:1020E000106000E0491E29B10548006800F040007A
:1020F0000028F7D009B90120ECE70020EAE700004A
:102100000C28004001460022024800EB81021068C2
:1021100070470000502800402DE9F04107460C466A
:1021200015461E46CA2041490860532008603F48B2
:102130001C38006820F480703C491C39086000BFDE
:102140003A481838006800F001000028F8D0002054
:102150003649083908600846006840F08040086049
:102160000846006808603846FFF7D9FE2F4908394D
:10217000096841EA00602D49083908602046FFF7E8
:10218000CEFE2A490839096841EA00402749083942
:1021900008602846FFF7C3FE24490839096841EA68
:1021A00000202249083908603046FFF7B8FE1F4971
:1021B0000839096808431D490839086000201B498F
:1021C0002031086019481C38006840F480501749D5
:1021D0001C3908600846006840F480700860FF20E1
:1021E0001249086011481838006820F480700F49BF
:1021F000183908604FF400300D4908600C48143855
:10220000006840F400300A491439086008480C3866
:10221000006840F4003006490C3908602923022286
:1022200011461046FFF7BCFBBDE8F08124280040B2
:10223000143C01402DE9F04106460C4615460027A6
:10224000CA201449086053200860FFF73BFF10B113
:102250000120BDE8F0813046FFF761FE000403F085
:10226000070140EA41382046FFF759FE48EA0028B6
:102270002846FFF754FE48EA000706482038076062
:1022800004481838006820F08000024918390860B6
:102290000020DEE7242800402DE9F04106460C46E8
:1022A00015460027CA201449086053200860FFF72C
:1022B00009FF10B10120BDE8F0813046FFF72FFE85
:1022C000000403F0010140EA81582046FFF727FE91
:1022D00048EA00282846FFF722FE48EA0007064899
:1022E0002438076004481838006820F0800002494C
:1022F000183908600020DEE72428004070B5044645
:102300000D46CA202A4908605320086028481C3816
:10231000006820F4806026491C39086000BF24480A
:102320001838006800F004000028F8D020481C3855
:10233000006820F007001E491C3908600846006844
:1023400004F0070108431A491C390860184810387E
:102350000560081D006820F48060091D0860081FE2
:10236000006840F48040091F08600846006840F497
:1023700080600860FF200E4908604FF480000D491E
:1023800008600C481438006840F48000094914398A
:10239000086008480C38006840F4800005490C3992
:1023A00008600323022211461046FFF7F9FA70BDB8
:1023B00024280040143C01400848006800F4806074
:1023C00028B10648006820F4806004490860044889
:1023D000006840F480000249086070470C28004003
:1023E000143C01400F49CA200F4A1060532010606E
:1023F0000D481838006820F020000B4A183A106089
:1024000000E0491E31B108481838006800F020008B
:102410000028F6D009B901207047FF20024A106059
:102420000020F9E7FFFF0F00242800400022024BA4
:1024300003EB8002116070475028004010B500F097
:10244000AFF810BD10B5F52000F00CF80449486055
:10245000F32000F007F802490860084610BD0000AC
:102460001C0000202DE9F04F87B0044600F07CF8F6
:10247000FEF796FE8020FFF70FF9FFF789F818B1F5
:10248000002007B0BDE8F08F2046FFF705F9FFF701
:102490007FF808B10020F4E700BF062001F09AF9A8
:1024A000FEF77EFE8120FFF7F7F8FFF771F80028AE
:1024B000F3D1FFF793F805460020FFF7C1F8FFF7C7
:1024C0008DF806460020FFF7BBF8FFF787F80120DC
:1024D000FFF7B6F8FEF784FE06F0FC0606EB0520D3
:1024E000FEF7D0F88346F52C0FD118495846FDF772
:1024F000D1FE80464FF08F41FDF7FEFE074614499E
:10250000FDF7C2FE81464846BBE7F32C1AD1584678
:10251000FEF7DAF80F4A104BCDE90001FDF7D1FFC5
:1025200000220E4BCDE90201FEF73DF807460C4AAA
:102530000C4BFDF7C0FFCDE90401FEF7D8F8824649
:1025400050469EE74FF07E509BE700000000FA42A5
:102550000000C040D7A3703D0AF765400000F0407E
:10256000CDCCCCCCCC6C474010B5FEF719FE80200A
:10257000FFF792F8FFF70CF800B110BDE620FFF767
:102580008BF8FFF705F800B1F7E78320FFF784F831
:10259000FEF7FEFF00B1F0E7FEF722FE00BFECE71A
:1025A00010B5FEF7FDFD8020FFF776F8FEF7F0FF8F
:1025B00000B110BDFE20FFF76FF8FEF7E9FF00B194
:1025C000F7E7FEF70DFE00BFF3E700002F480068B5
:1025D00040F480502D4908602C481438006840F0C1
:1025E00002002A49143908602948006820F47C60F8
:1025F000274908600846006840F4286008602448BD
:102600000830006820F47C602149083108600846E1
:10261000006840F4286008601D48203000681D49AB
:1026200008401B4920310860084600681A490843E1
:102630001749203108601948008840F00400174904
:1026400008800846008840F400700880084600882A
:1026500040F4807008800846008840F02000088020
:102660000846008820F4006008800846008820F0B2
:10267000800008800846008820F003000880084693
:10268000008840F040000880704700004438024055
:1026900000040240FF0F00FF0050550000300140D1
:1026A000014600BF0948008900F002000028F9D067
:1026B0000648818100BF0548008900F0010000281C
:1026C000F9D002488089C0B2704700000030014054
:1026D0002248006840F08050204908602048006887
:1026E00040F440401E4908601C48383800681B49C7
:1026F000383908600846006808600846006840F4F9
:10270000805008601748091F0860081F006840F0E3
:102710008070091F086000BF10484038006800F052
:1027200000700028F8D040F202700F4908600B4892
:102730003838006820F00300084938390860084636
:10274000006840F00200086000BF044838380068A4
:1027500000F00C000828F8D1704700004038024013
:102760000070004010640107003C024000B593B0C7
:10277000FFF7CCF948E00FAB10AA11A912A8FFF798
:10278000FFFB9DF8400000909DF844309DF84820E4
:102790001EA101A800F022FB102301AA0021084677
:1027A000FFF791FA0BAB0CAA0DA90EA8FFF7C6FB19
:1027B0009DF8300000909DF834309DF8382017A126
:1027C00001A800F00BFB102301AA02210020FFF753
:1027D0007AFA9DF82C2016A101A800F0FFFA102328
:1027E00001AA04210020FFF76EFA1448006900F0E6
:1027F000010048B1322000F0D1FF1048006900F01C
:10280000010008B113B000BDB5E700002530326407
:102810003A253032643A25303264000032302530B7
:1028200032642D253032642D2530326400000000E2
:102830004E4F3A202564207765656B00000002400A
:1028400000B591B018210BA8FDF7C1FCFFF75EF9A8
:102850002B4808238022002100900846FFF77CF9CE
:102860004FF47A7000F09AFFFEF778FB4FF47A701D
:1028700000F094FFFFF74AF940E0FEF701FB0BA8D8
:10288000FEF72AFB9DF8330030B910231DA2042166
:102890001420FFF718FA22E09DF83300012814D124
:1028A00010231AA204211420FFF70DFA9DF83730E7
:1028B0009DF8362017A101A800F090FA102301AA74
:1028C00006211420FFF7FFF909E09DF833000228E4
:1028D00005D1102313A204211420FFF7F4F91348A3
:1028E000006900F0010048B1322000F057FF0F48A6
:1028F000006900F0010008B111B000BDBDE70000A3
:10290000004A000874657374696E670073756363C9
:1029100065737300253033642F25303364204D4DAB
:10292000474800006661696C2020200000000240DA
:1029300000B591B0182101A8FDF749FCFFF7E6F8B2
:102940001A4808238022002100900846FFF704F966
:102950004FF47A7000F022FFFEF716FB4FF47A7006
:1029600000F01CFFFFF7D2F81FE0FEF79FFA01A866
:10297000FEF7B2FA9DF80B200DA107A800F02EFA81
:10298000102307AA06212820FFF79DF90B480069AC
:1029900000F0010048B1322000F000FF0748006954
:1029A00000F0010008B111B000BDDEE7004A0008E8
:1029B000706C75733A2530336400000000000240EB
:1029C000F0B58FB0FFF7A2F82FE0FFF73BFD03C88B
:1029D000CDE90D01FFF736FD03C8CDE90D010E98D5
:1029E000FDF772FE04460D460D98FDF76DFE064696
:1029F00032460B460DA103A8CDE9004500F0EEF9E3
:102A0000102303AA00210846FFF75DF90D4800696D
:102A100000F0010048B1322000F0C0FE0948006912
:102A200000F0010008B10FB0F0BDCEE754656D2095
:102A3000252E326620202020202020524820252EBE
:102A4000326600000000024030B595B0FFF75EF836
:102A500011E16A4601A902A8FEF754FE10AB11AAC3
:102A600012A913A8FFF78CFA834880788349097864
:102A7000884207D0804880788049087000207E49CD
:102A8000C87004E07C48C078401C7B49C8709DF841
:102A90004C00794908709DF8480048709DF8440042
:102AA00088700846807875490978884207D072484E
:102AB00080787249087000206F49C87004E06E4841
:102AC000C078401C6C49C8709DF84C006A49087079
:102AD0009DF8480048709DF844008870BDF90800D2
:102AE000FDF7D0FD05464FF08D41FDF705FC04468E
:102AF0006349FDF7CFFB0390BDF90400FDF7C2FD6C
:102B000005464FF08D41FDF7F7FB04465C49FDF7A4
:102B1000C1FB0490BDF90000FDF7B4FD05464FF080
:102B20008D41FDF7E9FB04465549FDF7B3FB0590E0
:102B300014A800F039F9044622464F4903A800F0D2
:102B4000F7FE5049D0E900238068C1E9002388607E
:102B500008464DA1826806A800F040F9102306AA95
:102B600000214020FFF7AFF800210398FDF7E6FDB4
:102B70000FD80398FDF794FDC4B2224645A106A8DC
:102B800000F02CF9102306AA02215820FFF79BF829
:102B900011E0039880F000452846FDF781FDC4B29E
:102BA00022463EA106A800F019F9102306AA022128
:102BB0005820FFF788F800210498FDF7BFFD0FD8D3
:102BC0000498FDF76DFDC4B2224636A106A800F0B8
:102BD00005F9102306AA04215820FFF774F811E024
:102BE000049880F000452846FDF75AFDC4B22246FD
:102BF0002EA106A800F0F2F8102306AA04215820FE
:102C0000FFF761F800210598FDF798FD0FD80598AA
:102C1000FDF746FDC4B2224626A106A800F0DEF864
:102C2000102306AA06215820FFF74DF811E0059859
:102C300080F000452846FDF733FDC4B222461FA1AF
:102C400006A800F0CBF8102306AA06215820FFF7AB
:102C50003AF8142000F0A2FD1A48006900F00100C3
:102C600048B1322000F09AFD1648006900F00100DA
:102C700008B115B030BDECE68100002085000020D1
:102C800000002041F400002073703A2530346420A5
:102C900000000000583A253032642000583A2D25B3
:102CA00030326400593A253032642000593A2D25DB
:102CB000303264005A3A2530326420005A3A2D25C9
:102CC000303264000000024010B51248006840F045
:102CD00001001049086000200E49083108600D48C5
:102CE00000680D4908400B4908600C48091D086040
:102CF000081F006820F48020091F08600020054993
:102D00000C310860FFF7E4FC4FF0006004490860F4
:102D100010BD000000380240FFFFF6FE1030002416
:102D200008ED00E00848008800F0010028B10748DD
:102D3000406980F08000054948610348008820F020
:102D40000100014908807047100400400000024063
:102D500070B505460C461248006840F00200104964
:102D6000086010480560001F048000200D490839E4
:102D700008600C482038008840F0010009492039DB
:102D8000088008482C38008840F0010005492C399B
:102D900008801D23012211460520FEF701FE70BDAB
:102DA000403802402C04004008B501460020009045
:102DB0006946014808BD0000680000200FB4054BBB
:102DC00010B503A9044A029800F0F4F810BC5DF8AD
:102DD00014FB00004D380008880000200FB4084B99
:102DE00010B504A902AA039800F0E4F8044602A969
:102DF000002000F076FC204610BC5DF814FB0000BB
:102E0000E336000802E008C8121F08C1002AFAD100
:102E100070477047002001E001C1121F002AFBD15A
:102E20007047000001490860704700008C000020D6
:102E30002DE9FF5F82B00021DDE90430020DDDF8ED
:102E400040B0034318D044F61050A2F2FF32424380
:102E50001514119801281FD0A5EB0B00401C5FEA48
:102E6000000A4FF000064E4FDFF83891B04650464A
:102E700015D5CAF1000413E0119801244AA30128D2
:102E800001D16FEA0B010298119AC0E90031C0E943
:102E9000024206B0BDE8F09FCBF10000DFE7044638
:102EA0000021404A491842EB0450CDE9001012E0DD
:102EB000E00707D032463B4640464946FDF701FB56
:102EC0008046894632463B4610461946FDF7F9FAD8
:102ED00006460F466410002CEAD1DDE90401DDE965
:102EE0000023BAF1000F06DAFDF7EBFA42464B4633
:102EF000FDF7E7FA05E0FDF756FB42464B46FDF7C6
:102F000052FB04460E460022284BFDF787FD03D8EE
:102F10004FF0FF30014607E00022254B20463146A6
:102F2000FDF728FAFDF761FD102409E0002C0ADB0B
:102F30000A220023FDF722FC039B30321A55641E3F
:102F400050EA0102F2D1641C039AC4F11103144443
:102F5000119A012A03D0012208430DD10AE0084347
:102F600004D000204FF0110B119072E7A3EB0B057A
:102F70006D1E0DE05B4504DD4FF0000205F101051B
:102F800004E003DA4FF00002A5F10105002AECD0BD
:102F900002981199C0E90231C0E9004579E70000C3
:102FA000000014400000F03F300000000000F0433B
:102FB0000000E03F2DE9FF4F95B09B46894606464D
:102FC00000250FE2252877D100242746F84A012161
:102FD000059400E0044316F8013F203B01FA03F09A
:102FE0001042F7D130782A2811D06FF02F033078B3
:102FF000A0F13002092A16D8059A44F0020402EB27
:10300000820203EB42021044761C0590EFE759F868
:10301000042B0592002A03DA504244F40054059030
:1030200044F00204761C30782E2816D116F8010FD1
:1030300044F004042A280DD06FF02F023078A0F15C
:103040003003092B09D807EB870302EB4303C718AA
:10305000761CF3E759F8047B761C30786C280FD087
:1030600006DC4C2817D068280DD06A2814D104E05B
:10307000742810D07A280FD10DE044F400140AE02F
:1030800044F4801401E044F440147278824202D186
:1030900004F58014761C761C307866280BD013DC7F
:1030A000582877D009DC002875D04528F6D0462866
:1030B000F4D047281AD19DE118E0632835D0642860
:1030C00079D0652812D195E1702873D008DC672883
:1030D000F1D069286FD06E280DD06F2806D1B5E0E9
:1030E00073282CD0752875D0782874D05A46179933
:1030F00090476D1C75E1C4F30250022809D00328E3
:103100000DD0D9F8001004280DD00D6009F1040984
:1031100067E1D9F80010EA17C1E90052F6E7D9F8DB
:1031200000100D80F2E70D70F0E719F8041B8DF820
:10313000001000208DF80100EA46012003E059F854
:1031400004AB4FF0FF3061074FF0000102D40DE0F7
:1031500008F101018846B9420FDA8045F8DB1AF818
:1031600008100029F4D108E008F1010188468142E5
:10317000FADB1AF808100029F6D105985B46A0EB97
:10318000080721463846179A00F094FA284400EBC5
:10319000080507E04DE029E10DE01AF8010B5A4659
:1031A00017999047B8F10108F7D25B462146384697
:1031B000179A13E142E00A220092C4F302524FF040
:1031C000000A022A08D059F804CB032A4FEAEC710E
:1031D0000AD00DE029E02AE009F1070121F00702F9
:1031E000F2E802C1914609E00FFA8CFC4FEAEC715B
:1031F000042A03D14FFA8CFC4FEAEC71002907DA5C
:103200000A460021DCF1000C61EB02012D2202E0F4
:10321000220504D52B228DF80420012203E0E207C9
:1032200001D02022F7E7904659E00A2102E010225F
:103230000DE010214FF0000A00910BE010224FF03A
:10324000000A44F004040827009203E008224FF02B
:10325000000A0092C4F30252022A05D059F804CBA6
:103260000021032A08D009E009F1070121F0070233
:10327000F2E802C1914605E01FFA8CFC042A01D154
:103280000CF0FF0C4FF00008220728D5702806D05C
:10329000009B83F0100353EA0A0305D00EE040229E
:1032A0008DF80420012208E05CEA010206D03022F9
:1032B0008DF804208DF8050002229046009B83F0D3
:1032C000080353EA0A030AD15CEA010201D162074A
:1032D00005D530228DF804204FF001087F1E5828B4
:1032E00004D034A003900EA802900DE036A0F9E7B8
:1032F00053466046009AFDF741FA84460398825C83
:103300000298401E029002705CEA0100F0D102981F
:1033100006A9081A00F1200A600702D524F48034B7
:1033200000E00127574502DDA7EB0A0000E000207E
:1033300000EB0A01009005984144401A0590E00313
:1033400006D45B462146179A059800F0B3F9054468
:10335000002706E001A85A46C05D179990476D1CEA
:103360007F1C4745F6DBE0030CD55B462146179AE8
:10337000059800F09FF9054404E030205A4617995B
:1033800090476D1C0099481E00900029F5DC08E06C
:10339000029802995A460078491C02911799904761
:1033A0006D1CBAF10001AAF1010AF1DC65E100002F
:1033B000092801003031323334353637383961620B
:1033C00063646566000000003031323334353637CF
:1033D00038394142434445460000000000F058F9A6
:1033E0000544761C307800287FF4ECAD19B02846EF
:1033F000BDE8F08F620700D4062709F1070222F02A
:10340000070CFCE80223E14603F000485FEA080CE1
:1034100002D00FF2702C0DE05FEA045C02D50FF2CF
:10342000682C07E05FEAC47C02D00FF2602C01E058
:10343000AFF2700C4FF0FF3823F00043CDF850C0CE
:1034400065280CD006DC452809D046281DD0472821
:103450003DD13DE0662818D067287ED138E00021B4
:10346000112F01DB112000E0781CCDE9000106A935
:103470000EA8FFF7DDFCDDE90F010E9A0391002194
:10348000009207F1010A04914DE04FF000400097CF
:10349000CDE9011006A90EA8FFF7CAFCDDE90F026D
:1034A00003920E9B11990022DDF80CA00093049268
:1034B00011B9791C00EB010AB7EB0A0004D4C0F182
:1034C000FF3007F1010A0490AAEB0700019044E0E5
:1034D000012F00DA01270021112F01DD112000E06A
:1034E0003846CDE9000106A90EA8FFF7A1FCDDE9E9
:1034F0000F010E9A0391002104910092BA46210710
:103500000CD40399514500DA8A46BAF1010F05DD62
:10351000009AAAF10101515C302908D0B84202DAC0
:1035200010F1040F06DA0121CDE9011015E0AAF12E
:103530000101E9E7002805DC049901440491AAEBA4
:10354000000102E0411C514500DD8A460499401A01
:10355000401C01904FF000400290200704D40198D5
:10356000504501DBCDF8048000208DF84F00029813
:103570000DF14F07B0F1004F25D02B200E9002988F
:103580004FF0020800280CDA404202902D200E90E5
:1035900007E00A210298FDF7DBF83031029007F8C6
:1035A000011DB8F10001A8F10108F2DC0298002821
:1035B000EFD1791E0E980870307800F0200040F0AE
:1035C000450007F8020D12A8C01B00F10708149867
:1035D000007800B1012000EB0A01019801EBE071D5
:1035E00005984144401A401E0590E00306D45B460E
:1035F0002146179A059800F05DF805441498007864
:1036000018B15A46179990476D1CE00324D55B46C4
:103610002146179A059800F04DF805441CE00498DF
:10362000002807DBDDE90301884203DD0098405CE8
:10363000179901E0179930205A469047049805F1F0
:103640000105401C04900198401E019004D12E20D9
:103650005A46179990476D1CBAF10001AAF1010A68
:10366000DDDC05E017F8010B5A46179990476D1CF1
:10367000B8F10001A8F10108F4DC5B462146179A75
:103680000598ABE62D0000002B0000002000000094
:103690002DE9F041044600251E461746880404D44F
:1036A00005E039462020B0476D1C641EF9D5284638
:1036B000BDE8F0812DE9F041044600251E46904604
:1036C000C80301D5302700E02027880404D505E091
:1036D00041463846B0476D1C641EF9D52846BDE802
:1036E000F0810A68531C0B60107070472DE9F0419F
:1036F00005460E460027002400BF07E055F82410B9
:103700003846FCF76FFD0746601CC4B2B442F5DBD7
:103710004FF081413846FCF7EFFD07464FF08241FC
:103720003846FDF70BF801D8164F28E01649384601
:10373000FDF704F807D84FF082413846FCF7F4FF54
:1037400001D2124F1BE04FF081413846FCF7F6FFE3
:1037500006D80D493846FCF7E7FF01D20C4F0EE0C2
:103760000C493846FCF7EAFF08D84FF0814138464B
:10377000FCF7DAFF02D24FF0804700E0064F3846F0
:10378000BDE8F0819A9989400000E040333353400E
:1037900033331340000040406666A63F70B50446D0
:1037A0004FF4077094FBF0F0C6B24FF4077094FB2F
:1037B000F0F100FB114085B205E04FF4077000F016
:1037C00027F8701EC6B2002EF7D115B1284600F0BA
:1037D0001FF870BD01460D4A12784A434FF0E023AE
:1037E0005A6100229A6101221A6100BF4FF0E02263
:1037F000106900F001021AB100F48032002AF5D0FD
:1038000000224FF0E0231A619A61704718000020EF
:1038100001460D4A12884A434FF0E0235A610022C4
:103820009A6101221A6100BF4FF0E022106900F096
:1038300001021AB100F48032002AF5D000224FF0C4
:10384000E0231A619A6170471A00002038B50446D7
:103850008DF8000069460320ABBE204638BD00004D
:103860006420FDF74DF9FEF7B1FEFDF761FEFEF7AE
:10387000E5FDFEF7C9F8FDF76DFFFDF73FFBFEF72D
:10388000A1FB00210420FEF739FDFEF757F8FDF7F4
:1038900033FE41F2873142F20F70FFF759FA3CE0F4
:1038A0001E48006900F0010070B1FDF7F1F81C48F6
:1038B00040681C4908601A4800681B4908601B489A
:1038C0004068401C1949486016480068062822D202
:1038D000DFE800F02103090F151BFEF747FF642006
:1038E000FFF75CFF18E0FFF723F86420FFF756FFAF
:1038F00012E0FEF7A5FF6420FFF750FF0CE0FFF792
:103900005FF86420FFF74AFF06E0FFF79DF86420A8
:10391000FFF744FF00E000BF00BFC1E70000024026
:1039200000000020140000201000002008000020EB
:103930002DE9F04F87B004460E4691462546CA460B
:1039400006961A492868086068684860A868886010
:103950000A4691689068FCF79DFC144A02905168F1
:103960005068FCF797FC114A019011681068FCF749
:1039700091FC00900199FCF735FC83460299FCF715
:1039800031FC0390FCF7A0FECDE9040100F012F831
:103990000746FCF7ACFE0649086052460448069903
:1039A0000068FDF7CDF807B0BDE8F08FC00000203B
:1039B0004C0000202DE9F04106460F46FCF7C4FFFD
:1039C000041E0D4618BF0120284320F00040C0F11E
:1039D0007F6000F1E040C00F0ED0301C18BF012006
:1039E000384320F00040C0F17F6000F1E040C00F9C
:1039F00004BF0120FFF716FA20462946BDE8F081F2
:103A000000000000000000000000000000000000B6
:103A1000000000F80000000000000033300000004B
:103A200000100C06100C0600000000000000000052
:103A300040C07840C0784000043F04043F040400C4
:103A4000007088FC08300000001820FF211E0000D4
:103A5000F008F000E018000000211C031E211E00E9
:103A600000F00888700000001E212324192721106F
:103A700010160E0000000000000000000000000012
:103A8000000000E0180402000000000718204000B9
:103A900000020418E00000000040201807000000A9
:103AA000404080F0804040000202010F010202000D
:103AB000000000F0000000000101011F01010100F1
:103AC000000000000000000080B070000000000056
:103AD00000000000000000000001010101010101DF
:103AE0000000000000000000003030000000000076
:103AF000000000008060180400601806010000004B
:103B000000E010080810E000000F102020100F0047
:103B1000001010F8000000000020203F20200000CE
:103B20000070080808887000003028242221300026
:103B300000300888884830000018202020110E002E
:103B40000000C02010F8000000070424243F2400D7
:103B500000F80888880808000019212020110E00AC
:103B600000E0108888180000000F112020110E00BE
:103B700000380808C83808000000003F00000000B6
:103B80000070880808887000001C222121221C0077
:103B900000E010080810E0000000312222110F00A0
:103BA000000000C0C0000000000000303000000035
:103BB00000000080000000000000806000000000A5
:103BC00000008040201008000001020408102000BE
:103BD0004040404040404000040404040404040009
:103BE000000810204080000000201008040201009E
:103BF000007048080808F00000000030360100009E
:103C0000C030C828E810E0000718272423140B0050
:103C10000000C038E0000000203C230202273820CA
:103C200008F8888888700000203F202020110E00AE
:103C3000C0300808080838000718202020100800A5
:103C400008F808080810E000203F202020100F008E
:103C500008F88888E8081000203F2020232018005A
:103C600008F88888E8081000203F200003000000C2
:103C7000C03008080838000007182020221E020063
:103C800008F808000008F808203F210101213F2022
:103C9000000808F8080800000020203F202000004D
:103CA00000000808F8080800C08080807F0000003D
:103CB00008F888C028180800203F20012638200076
:103CC00008F8080000000000203F202020203000DD
:103CD00008F8F800F8F80800203F003F003F2000F7
:103CE00008F830C00008F808203F200007183F00FF
:103CF000E01008080810E0000F10202020100F002E
:103D000008F808080808F000203F21010101000020
:103D1000E01008080810E0000F18242438504F0065
:103D200008F8888888887000203F2000030C302025
:103D300000708808080838000038202121221C0063
:103D4000180808F8080818000000203F20000000AC
:103D500008F808000008F808001F202020201F0095
:103D60000878880000C83808000007380E010000F5
:103D7000F80800F80008F800033C0700073C0300BF
:103D8000081868808068180820302C03032C302025
:103D90000838C800C83808000000203F2000000094
:103DA00010080808C83808002038262120201800EC
:103DB000000000FE020202000000007F40404000C0
:103DC000000C30C000000000000000010638C000F8
:103DD00000020202FE000000004040407F000000A0
:103DE00000000402020204000000000000000000C5
:103DF00000000000000000008080808080808080C3
:103E000000020204000000000000000000000000AA
:103E100000008080808000000019242222223F20A0
:103E200008F8008080000000003F112020110E00E3
:103E30000000008080800000000E11202020110072
:103E4000000000808088F800000E112020103F2024
:103E50000000808080800000001F222222221300A8
:103E6000008080F0888888180020203F20200000F3
:103E70000000808080808000006B949494936000A8
:103E800008F8008080800000203F210000203F20B3
:103E900000809898000000000020203F20200000B3
:103EA000000000809898000000C08080807F0000A3
:103EB00008F8000080808000203F24022D30200080
:103EC000000808F8000000000020203F202000002B
:103ED0008080808080808000203F20003F20003F45
:103EE0008080008080800000203F210000203F2053
:103EF0000000808080800000001F202020201F0004
:103F0000808000808000000080FFA12020110E0032
:103F10000000008080808000000E112020A0FF8023
:103F2000808080008080800020203F2120000100D0
:103F30000000808080808000003324242424190025
:103F4000008080E0808000000000001F2020000032
:103F50008080000000808000001F202020103F2073
:103F6000808080000080808000010E300806010003
:103F700080800080008080800F300C030C300F00A8
:103F800000808000808080000020312E0E312000D3
:103F9000808080000080808080818E701806010003
:103FA00000808080808080000021302C2221300021
:103FB00000000000807C020200000000003F404042
:103FC00000000000FF00000000000000FF000000F3
:103FD0000002027C800000000040403F0000000022
:103FE00000060101020204040000000000000000BD
:103FF0000000000000000000002F0000000007008B
:10400000070000147F147F1400242A7F2A12006204
:1040100064081323003649552250000005030000B0
:1040200000001C224100000041221C000014083E38
:1040300008140008083E0808000000A060000008FE
:104040000808080800006060000000201008040252
:10405000003E5149453E0000427F40000042615110
:104060004946002141454B31001814127F100027AA
:1040700045454539003C4A4949300001710905036D
:1040800000364949493600064949291E000036369E
:104090000000000056360000000814224100001401
:1040A00014141414000041221408000201510906DE
:1040B00000324959513E007C1211127C007F49495F
:1040C0004936003E41414122007F4141221C007F90
:1040D00049494941007F09090901003E4149497A9E
:1040E000007F0808087F0000417F41000020404118
:1040F0003F01007F08142241007F40404040007F84
:10410000020C027F007F0408107F003E4141413EC7
:10411000007F09090906003E4151215E007F09190F
:1041200029460046494949310001017F0101003F0C
:104130004040403F001F2040201F003F4038403F8C
:1041400000631408146300070870080700615149F0
:10415000454300007F41410000552A552A55000083
:1041600041417F0000040201020400404040404001
:10417000000001020400002054545478007F484499
:10418000443800384444442000384444487F0038D0
:104190005454541800087E0901020018A4A4A47CF9
:1041A000007F080404780000447D400000408084C3
:1041B0007D00007F102844000000417F4000007C0B
:1041C00004180478007C0804047800384444443817
:1041D00000FC242424180018242418FC007C080463
:1041E000040800485454542000043F444020003C3C
:1041F0004040207C001C2040201C003C4030403CC3
:10420000004428102844001CA0A0A07C0044645452
:104210004C44141414141414000000000000000096
:10422000000000000000000000000000000000008E
:10423000000000000000000000000000000000007E
:104240000000000000000000000000000000F0F08E
:10425000F000000000000000000000000000017FEE
:1042600001000000000000000000000000001C1C15
:104270001C1C00000000000000008060303C1C8C12
:1042800060303C1C0C00000000000000000000003A
:10429000000000000000000000000000000000001E
:1042A00000000000000000000000000000E000002E
:1042B00000000000E000000000868686FE878686FB
:1042C000868686FE878686000001011F01010101A6
:1042D00001011F010101010000000080C0402020F9
:1042E000F8202060C0C0000000000003070C0C187C
:1042F000FF3060E1C18100000000070F0B101010BB
:104300007F1010080F07000080C0602020C08000D0
:10431000000080C0200000000F1F3020301F8F6081
:10432000D8E6331030E0C000000000100C0301009C
:10433000070F1810180F0700000080C0602020E051
:10434000C00000000000000080E0271F78E8C407DC
:104350000304C43C04040000070F18101010110BD4
:10436000070F181010100C0000808C4C7C380000D7
:10437000000000000000000000000000000000003D
:10438000000000000000000000000000000000002D
:10439000000000000000000000000000000000001D
:1043A00000C0603018080400000000000000007C1D
:1043B000FF010000000000000000000000000000FD
:1043C00003070C1830204000000408183060C000BB
:1043D000000000000000000000000000000001FFDD
:1043E0007C0000000000000000402030180C070393
:1043F000000000000000000000000000000000C0FD
:10440000C0C00000000000000000426666242818BA
:10441000FF1824246666420000000000000000032C
:104420000303000000000000000000000000000086
:10443000800000000000000000001010101010109C
:10444000FF1010101010100000000000000000000D
:104450000300000000000000000000000000000059
:10446000000000000000000000000000000000004C
:10447000000000000000000000808C4C7C38000030
:10448000000000000000000000000000000000002C
:1044900000000000000000000010101010101010AC
:1044A000101010101010100000000000000000009C
:1044B00000000000000000000000000000000000FC
:1044C00000000000000000000000000000000000EC
:1044D000000000000000000000001C1C1C18000070
:1044E00000000000000000000000000000000000CC
:1044F000000000C030180400000000000080C03040
:1045000018060300000000000040301806010000FB
:10451000000000000000000000000000C0C060209B
:1045200020202040C00000000000FCFF030000002D
:104530000000000001FFFE0000000003060C181040
:10454000101018080E03000000000080808080C05A
:10455000E00000000000000000000000000000FF7C
:10456000FF00000000000000000000101010101FED
:104570001F1010101000000000008040402020207C
:10458000202060C0C0800000000003020000008006
:10459000402030180F0700000000181C1A191918C5
:1045A000181818181C070000000080C040202020A8
:1045B000206040C0800000000000030300001010D5
:1045C00010182867C38000000000070F101010109B
:1045D0001010180C0703000000000000000000008D
:1045E000C0E0F0F0000000000080C0B0988482813C
:1045F00080FFFFFF8080800000000000000010109E
:10460000101F1F1F1010100000000000E06060600D
:1046100060606060606000000000003E23100808D9
:1046200008081830F0C000000000070B1010101030
:104630001010180C0F0300000000000080C0402084
:1046400020202020E0C000000000FCFF21101808FE
:104650000808081830F0C000000001070E08181004
:10466000101010180C070300000080E0606060600C
:10467000606060E06020000000000300000000C0F7
:10468000300C0201000000000000000000001E1FAE
:104690000000000000000000000080C0402020203A
:1046A00020202040C08000000080C3672C18181014
:1046B000303070E8C783000000070F0C181010108E
:1046C000101018080F070000000080C06020202094
:1046D000202040C080000000001F3F30604040406C
:1046E00040602010FFFE000000000C1C1010101095
:1046F00018080C0703000000000000000000000084
:1047000000000000000000000000000000000E0E8D
:104710000E0E0000000000000000000000001C1C45
:104720001C1C0000000000000000C1C081C140014D
:1047300001C3C003800241C201C6C006800741C751
:104740000005C1C581C4400401CCC00C800D41CD21
:10475000000FC1CF81CE400E000AC1CA81CB400BF1
:1047600001C9C009800841C801D8C018801941D9C1
:10477000001BC1DB81DA401A001EC1DE81DF401F51
:1047800001DDC01D801C41DC0014C1D481D5401561
:1047900001D7C017801641D601D2C012801341D371
:1047A0000011C1D181D0401001F0C030803141F101
:1047B0000033C1F381F240320036C1F681F7403751
:1047C00001F5C035803441F4003CC1FC81FD403D21
:1047D00001FFC03F803E41FE01FAC03A803B41FBF1
:1047E0000039C1F981F840380028C1E881E9402941
:1047F00001EBC02B802A41EA01EEC02E802F41EF51
:10480000002DC1ED81EC402C01E4C024802541E560
:104810000027C1E781E640260022C1E281E3402370
:1048200001E1C021802041E001A0C060806141A180
:104830000063C1A381A240620066C1A681A7406750
:1048400001A5C065806441A4006CC1AC81AD406D20
:1048500001AFC06F806E41AE01AAC06A806B41ABF0
:104860000069C1A981A840680078C1B881B94079C0
:1048700001BBC07B807A41BA01BEC07E807F41BF50
:10488000007DC1BD81BC407C01B4C074807541B560
:104890000077C1B781B640760072C1B281B3407370
:1048A00001B1C071807041B00050C1908191405100
:1048B0000193C053805241920196C0568057419750
:1048C0000055C19581944054019CC05C805D419D20
:1048D000005FC19F819E405E005AC19A819B405BF0
:1048E0000199C059805841980188C0488049418940
:1048F000004BC18B818A404A004EC18E818F404F50
:10490000018DC04D804C418C0044C184818540455F
:104910000187C047804641860182C042804341836F
:104920000041C18181804040C8D7B6A590010000F8
:104930000000000000000000000000000000000077
:10494000C8D7B6A5900000000000000000000000DD
:104950000000000000000000C8D7B6A590020000CB
:104960000000000000000000000000000000000047
:10497000C8D7B6A5D001000000000000000000006C
:104980000000000000000000C8D7B6A5D00000005D
:104990000000000000000000000000000000000017
:1049A000C8D7B6A5D002000000000000000000003B
:1049B0000000000000000000C8D7B6A5910000006C
:1049C00000000000000000000000000000000000E7
:1049D000C8D7B6A57001000000000000000000006C
:1049E0000000000000000000C8D7B6A5A202000029
:1049F00000000000000000000000000000000000B7
:104A00000000000000000000000000000044C8009A
:104A100088A8A8FCA8A8A888001020FC002090ACBA
:104A200048289800008040F08C9090F09C909080F6
:104A30000000F808A8A8A8087C886C0800809C944E
:104A4000949CE09C94B4DC800020E42820208040EA
:104A5000BC20E020008084848484FC84848484805E
:104A6000000048484848F8444444440000F848F8E6
:104A7000009868C80CC848D800000000000000007A
:104A800000000000000000000000000000003F10D7
:104A9000003F0A0A0A2A3F000004023F01010509FB
:104AA00021213F010000003F00000B0A121A2600DE
:104AB00000241B001B222B3422310A3700043C2A1D
:104AC0002A3900392A2A3C0400201F01213F0020F6
:104AD000170817200000000020203F000000000001
:104AE0000002020222223F0202020202001F223FB3
:104AF00002211A07001F223B0000000000000000F6
:104B0000004848A8FC80809CA8A824300080A8C841
:104B10008CC8A880F808C838000000000000000019
:104B200000000000000028C80808F808088868008D
:104B300000000000C0081060000080000088A8FC91
:104B4000A8A8504CE858C000002090ACA8A8A8A87D
:104B5000A8A82808000000000000000000000000D5
:104B60000000E02030EC20E02020E0000000F80809
:104B7000080808E808080808000000000000000015
:104B80000000003F0A0A0A0A2A3F000000003E1205
:104B900012123E003F0808070000000B070000004B
:104BA000000000000002020202023F0202020202B2
:104BB000000807001F2020202038000700003F0ABF
:104BC0003F0005253F050F01000000000000000028
:104BD000000F10380000000B07000000000000006C
:104BE00000203F20203F203F20203F2000201F208A
:104BF0002121213F21252920000000000000000084
:104C0000008810F808E808F800F000FC0020FCA478
:104C1000A4A4ECB4A4A4FC2000F090909010004850
:104C200048F84400E000FC0010E0000000F84848AC
:104C300048484444444000000808F8080808F808B8
:104C40000800000000F090909498909090F0000080
:104C50000000808000000000000000000000000054
:104C60000000000000000000000000000000000044
:104C70000000000000000000000000000000000034
:104C800000100927100F10270007203F00202B2AB3
:104C90002A2A3F2A2A2A2B20000408080807000491
:104CA000033F022120101308040200201807003ED1
:104CB00012121212123E00012119070101013F01D7
:104CC0000101002018073E1212121212123E0000BB
:104CD00000030404030000000000000000000000C6
:104CE00000000000000000000000000000000000C4
:104CF00000000000000000000000000000000000B4
:104D0000000000000000000000000000008810F813
:104D100008E808F800F000FC0020FCA4A4A4ECB40F
:104D2000A4A4FC20004044C80020A0202020FC2097
:104D3000004848F84400BCA4A4A4BC00003094B4CB
:104D4000B414FC14B4B49430000020F000000080CF
:104D500040B08C8080808CB0408000205CD050506F
:104D600000E020FC20E00000000080800000000047
:104D70000000000000000000000000000000000033
:104D800000000000000000000000000000100927E3
:104D9000100F10270007203F00202B2A2A2A3F2A25
:104DA0002A2A2B200020100F1020202328282F2013
:104DB0000004033F012224243F24242000023A0A55
:104DC0000A3A0E3A0A2A3A020000080F08000000C8
:104DD00020100C032020201F00000002023F120AB6
:104DE0000007023F02070000000304040300000064
:104DF00000000000000000000000000000000000B3
:104E0000000000000000000000000000000000445E
:104E1000C80088A8A8FCA8A8A88800001020FC004A
:104E20002090AC4828980000008040F08C9090F0D2
:104E30009C909080000000F808A8A8A8087C886CC6
:104E4000080000809C94949CE09C94B4DC8000005A
:104E500020E42820208040BC20E0200000808484C2
:104E60008484FC848484848000000048484848F896
:104E70004444444400000000000000000000000022
:104E80000000000000000000000000000000000022
:104E90003F10003F0A0A0A2A3F00000004023F01B7
:104EA00001050921213F01000000003F00000B0A1D
:104EB000121A26000000241B001B222B3422310A68
:104EC000370000043C2A2A3900392A2A3C04000011
:104ED000201F01213F0020170817200000000000BC
:104EE00020203F0000000000000002020222223FBA
:104EF00002020202020000000000000000000000A8
:104F000000F090F00030D090189090B00000909099
:104F100050F8000038505048600000005090189041
:104F20005000F01090700000000000000000000031
:104F300000000000000050901010F0101010D00081
:104F40000000000000801020C000000000000010E1
:104F500050F85050A098D0B0800000004020585029
:104F60005050505050501000000000000000000051
:104F7000000000000000E0202020200000000000D1
:104F8000003F447F0443340F003F4477000000009B
:104F90007F15151515557F00000000017D2525257D
:104FA0007D017F10110E00000000160E00000000B1
:104FB000000000000004040504047F040405040448
:104FC0000000100E003F4040404070010E00000104
:104FD0007F157F010A4A7F0A1F02000000010101BC
:104FE000010101011F207000000000160E000000EA
:104FF0000000000000001B2121211E000000000015
:10500000002020E010008000F00040800000000040
:10501000E0202020201010100000000000000020E0
:10502000408000000000000020A020A0603020A0F0
:1050300020A02000002040E020A020E000C000F0E0
:10504000000080F0909090B0D09090F080000080B0
:1050500080F08080202020E020200000002020E040
:10506000202020E0202000000000000000000000C0
:105070000000000000000000000000000000000030
:1050800000110DFF098483404F20100B0000806049
:105090001F01F94949494949F90000201C007F8056
:1050A000808180E0021C0000202825292DFB2D286E
:1050B000252820000042249F403F409F001F80FF82
:1050C000000080AFAAAAAAFFAAAAAAAF800000087F
:1050D00088FF0404008080FF000000000484641F37
:1050E000040404FF040404000000000000000000A9
:1050F00000000000000000000000000000000000B0
:10510000000000000000000000000000000000009F
:10511000000000000000000000000000000000008F
:10512000000000000000000000000000000000007F
:10513000000000000000000000000000000000006F
:10514000000000000000000000000000000000005F
:10515000000000000000000000000000000000004F
:10516000000000000000000000000000000000003F
:10517000000000000000000000000000000000002F
:10518000000000000000000000000000000000001F
:10519000000000000000000000000000000000000F
:1051A00000000000000000000000000000000000FF
:1051B00000000000000000000000000000000000EF
:1051C00000000000000000000000000000000000DF
:1051D00000000000000000000000000000000000CF
:1051E00000000000000000000000000000000000BF
:1051F00000000000000000000000000000000000AF
:1052000000000000000000000000000000E0E0805E
:105210008080A0E0C0808080800000004040C0C04E
:105220004040404040C0C000000000000040C0803E
:1052300000000000E0E000000000000000000000AE
:10524000000000000000000000000000000000005E
:10525000000000000000000000000000000000004E
:10526000000000000000000000000000000000003E
:10527000000000000000000000000000000000002E
:1052800000000000000000000020301CFFFF0000B4
:10529000242424242424242400000020B09C8FA350
:1052A000B59D9FB7A393B2BE1E0000080808F9F988
:1052B0000282C2723F1F3262C282020000000000FE
:1052C00000000000000000000000000000000000DE
:1052D00000000000000000000000000000000000CE
:1052E00000000000000000000000000000000000BE
:1052F00000000000000000000000000000000000AE
:105300000000000000000000000000001F1F00005F
:105310001F1F090909091F1F000008080F0F080FA8
:105320000F08080F0F080F0F08080000080C0707E8
:105330000D0908080808080809090800000000000D
:10534000000000000000000000000000000000005D
:10535000000000000000000000000000000000004D
:10536000000000000000000000000000000000003D
:10537000000000000000000000000000000000002D
:10538000000000000000000000000000000000001D
:1053900000000000000000000000002028AEE67CB5
:1053A0007CE4A420FCFC8484FCFC000010989C9607
:1053B00092949CB830FEFE10180CC4C0002038989F
:1053C000A8B8988A8E8C8898B8A8A8B8180010D465
:1053D000D454DEDE54D4D410FEFE149C9810000089
:1053E00000000000000000000000000000000000BD
:1053F00000000000000000000000000000000000AD
:10540000000000000000000000000000000000009C
:105410000000000000000000000000000101FEFE8E
:10542000929292929292FEFE0000000000FFFF24F2
:10543000A4A4FFFF00FCFD11190DC5C10000808C64
:10544000CE4A6828B898FFFF0808080808004057A7
:10545000FFFD5757FDFF57C0CF7F7CCFE3E0000033
:10546000000000000000000000000000000000003C
:10547000000000000000000000000000000000002C
:10548000000000000000000000000000000000001C
:10549000000000000000000000000000000001010A
:1054A0000000000000000101000000000001414078
:1054B00040C1C140404041C1C141414100000000E4
:1054C00000C0C00000E1E1000040C0800000000119
:1054D000414040404041C1C1404040404141000046
:1054E000000000000080E0600000000000000000FC
:1054F00000000000000000000000000000000000AC
:10550000000000000000000000000000000000009B
:10551000000000000000000000000000000000008B
:10552000000000000000000000000000001010104B
:1055300010FFFF10101010FFFF10101010000000DF
:105540000383E27A3FF7D2121292F2720200002035
:105550002020222E2C20FFFF20282E262020200075
:1055600000081CDECB494848484849CBCE1C1800EF
:10557000000000000000000000000000000000002B
:10558000000000000000000000000000000000001B
:10559000000000000000000000000000000000000B
:1055A00000000000000000000000000000001018D3
:1055B0000E0701000000001F1F0000000000000493
:1055C0000613111018080D07070D08181010000019
:1055D0000000000000001F1F00000000000000008D
:1055E0000000001F1F0808080808081F1F0000000F
:1055F00000000000000000000000000000000000AB
:10560000000000000008102040FF82442810000025
:1056100000000000000000000010080402FF41220A
:10562000140800000000000000000000000000005E
:10563000000000000000000000000000000000006A
:10564000000000000000C0C0C0000000000000001A
:10565000000000000000000000000000000000004A
:10566000000000000000000000000000000000003A
:1056700000008080868E9CD8E07030181B1B1B18A1
:105680003070E0D81C0E0600000000000000000092
:10569000000000000000000000000000000000000A
:1056A0000000F0F81C0607030101010101010303DA
:1056B000061E1C0C0C0E0E0C0C1F3FF0EE8E0E0E78
:1056C00000000000000000000000000000000000DA
:1056D00000000000F0FC0E060703000000000000C0
:1056E00000000000000000000000000000000000BA
:1056F000000103070EFCF8C00000000000000000DD
:1057000000000000000000000000030F1C183830EB
:10571000303030F0B0303030303030303030303049
:105720003030B0F0B030303038181C0F07000000B7
:105730000000000000000000000000000000000069
:10574000000000000000090F0F3F1F0F0F00363E42
:105750001E7F7F3E36000B0F1F3F0F0F090000001A
:105760000000000000000000000000000000000039
:105770000000000000000000000000000000000029
:105780000000000000000000000000000000000019
:105790000000000000000000000000000000000009
:1057A00000000000000000000000000000000000F9
:1057B00000000000000000000000000000000000E9
:1057C00000000000000000000000000000000000D9
:1057D00000000000000000000000000000000000C9
:1057E000000000000080C0E0F07838381C1C1C1C51
:1057F0001C1C1C1C1C383C7CF8F0F098181F1A1854
:10580000183030F8CC00000000000000000000005C
:105810000000000000000000F0FCFF1F030100007A
:105820000000000000000000000000000000000177
:10583000077FFEF8C0C0808080E07FDFC383010067
:10584000000000000000000000E0F8FC1E0F07034D
:105850000300000000000000000000000000000045
:105860000000000000000002030101010303030720
:105870000F1EFCF9E0000000000000000000001F07
:105880007FFFF0C08000000000000000000000006A
:105890000000000000000000000000000000000008
:1058A000000000000080C0F0FF7F1F00000000002B
:1058B00000000000000000000103030707070707BE
:1058C0000707070707070707070707070707070768
:1058D0000707070707070707070707030301000074
:1058E00000000000000000000000000000000000B8
:1058F00000000000000000000000000000000000A8
:105900000000000000000000000000000000000097
:105910000000000000000000000000000000000087
:105920000080C0E0E0F0F0F8F8FCFCFCFCF8F8F0D7
:10593000F0E0E0C0C080000080C0C0E0E0F0F0F81F
:10594000F8F8FCFCFCFCF8F8F0E0E0C08000000097
:10595000000000C0F0FCFEFFFFFFFFFFFFFFFFFFA6
:10596000FFFFFFFFFFFFFFFFFFFFFF3FFFFEFFFF08
:10597000FFFFFFFFFFFFFFFFFFFFFFFFFFFFFFFF37
:10598000FFFFFFFFFCF8E080FEFFFFFFFFFFFFFFD0
:10599000FFFFFFFFFF3F03033FFFFFFFFFFF3F0747
:1059A000008000073FFFFFFFFFFFFFFFFFFFFFFF3C
:1059B000FFFFFFFFFFFFFFFFFFFFFFFFFF3F0307AB
:1059C0000707C7C7C7C7C7C7C7C7C1C0F0E08001BF
:1059D0000F3F1F0380F8FFFFFFF8E001071F1F1FA5
:1059E0001F1F1F1F1F1F0F07070F1FFFFFFFFFFFB7
:1059F0007F1F030000000000000103070F1F3F7F0F
:105A0000FFFFFFFFFFFCE0C0E0FCFFFFFFFFFFFF29
:105A1000FFFFFFFFFFFFFFFFFFFFFFFFFEFC7C3EDE
:105A20001F0F07030100000000000000000000003D
:105A3000000000000000000103070F1F3F7FFFFF71
:105A4000FFFFFFFFFFFFFFFFFFFFFFFF7F3F1F0F76
:105A5000070301000000000000000000000000003B
:105A60000000000000000000000000000000000036
:105A700000000000000103070F1F3F3F1F0F070337
:105A80000100000000000000000000000000000015
:105A90000000000000000000000000000000000006
:105AA0000000008080C0E0E0E0E0C08080000000F6
:105AB000000000000000808080C0E0E0E0E0C0C0A6
:105AC0008000000000000000000000000000000056
:105AD0000080C0F0F8FCFEFFFFFFFFFFFFFFFFFFAD
